:020000040800F2
:10000000A8B60020290300088B5200081D440008F0
:1000100089520008570E00088D7600080000000085
:10002000000000000000000000000000690200085D
:100030005116000800000000C5020008AD6F00085E
:100040004303000843030008430300084303000878
:100050004303000843030008531600084303000845
:1000600043030008591600085F1600084303000800
:10007000A5100008430300084303000843030008D9
:100080004303000843030008430300084303000838
:10009000590E0008430300084303000865160008D2
:1000A0004303000843030008430300084303000818
:1000B0007D700008897000084303000843030008AE
:1000C00043030008430300084303000843030008F8
:1000D0004303000871760008430300087D7600089A
:1000E00043030008430300084303000843030008D8
:1000F00043030008430300084303000843030008C8
:100100004303000843030008A170000843030008EC
:1001100043030008430300084303000843030008A7
:1001200043030008B1100008BD1000087D15000849
:100130004303000843030008430300084303000887
:10014000650E00084303000843030008430300084A
:100150008915000895150008A1150008817600088A
:100160004303000843030008430300084303000857
:100170004303000843030008430300080000000095
:10018000430300084303000800F002F800F05CF8A5
:100190000AA090E8000C82448344AAF10107DA45E2
:1001A00001D100F051F8AFF2090EBAE80F0013F0D8
:1001B000010F18BFFB1A43F00103184774B6000083
:1001C00094B600000A444FF0000C10F8013B13F005
:1001D000070408BF10F8014B1D1108BF10F8015BA0
:1001E000641E05D010F8016B641E01F8016BF9D193
:1001F00013F0080F1EBF10F8014BAD1C0C1B09D1EA
:100200006D1E58BF01F801CBFAD505E014F8016B5B
:1002100001F8016B6D1EF9D59142D6D370470000ED
:100220000023002400250026103A28BF78C1FBD8FF
:10023000520728BF30C148BF0B6070471FB50AF096
:1002400026FE1FBD10B510BD00F002FA1146FFF7E3
:10025000F5FF08F03DFD00F020FA03B4FFF7F2FFD0
:1002600003BC00F023FA00002C4B19680868B0E8C2
:10027000F04F80F30988BFF36F8F4FF0000080F3D9
:10028000118870470000000008480068006880F38B
:1002900008884FF0000080F3148862B661B6BFF39F
:1002A0004F8FBFF36F8F00DF00BF00BF08ED00E08E
:1002B000DFF80C00016841F470010160704700BF75
:1002C00088ED00E0EFF30980BFF36F8F134B1A68DE
:1002D0001EF0100F08BF20ED108A20E9F04F1060CB
:1002E00009B44FF0500080F31188BFF34F8FBFF374
:1002F0006F8F09F023FE4FF0000080F3118809BCD6
:1003000019680868B0E8F04F1EF0100F08BFB0EC95
:10031000108A80F30988BFF36F8F70473000002088
:10032000EFF30580704700000948804709480047FF
:10033000FEE7FEE7FEE7FEE7FEE7FEE7FEE7FEE795
:10034000FEE7FEE704480549054A064B70470000F2
:100350006D70000889010008A8760020A8B600206A
:10036000A8960020A896002053EA020C00F06980AD
:100370002DE9F04B4FF00006002B1FBFB3FA83F5B9
:1003800003FA05F424FA05F65E4012BF1643B2FAEA
:1003900082F502FA05F4C5F120051EBF22FA05FC1C
:1003A00044EA0C04203556EA044C4FEA144418BFC2
:1003B000641C4FF000084FF00009904271EB030CF1
:1003C00039D3002919BFB1FA81F701FA07F6B0FA5B
:1003D00080F700FA07F6C7F120071EBF20FA07FCD6
:1003E00046EA0C062037B6FBF4FCA7EB0507103FE6
:1003F00007F01F0BCBF120060CFA0BFB2CFA06F6CC
:1004000044BFB3460026202FA4BF5E464FF0000B2A
:100410005BEA060C08BF4FF0010B19EB0B09ABFBB5
:10042000027C48EB0608C01B06FB02CC0BFB03CC8E
:1004300071EB0C01C1E70B46024641464846BDE858
:10044000F08B13B54FF000004FF00001AFF30080C8
:10045000BDE81C40704710B5431C02E010F8011BBA
:1004600071B18107FAD14FF0013202C88C1A8C4366
:1004700014EAC211F9D0C01A0A0603D0C01E10BD7A
:10048000C01A10BD0A0401D0801E10BD0902FCD0A4
:10049000401E10BD032A40F2308010F0030C00F023
:1004A000158011F8013BBCF1020F624498BF11F8AE
:1004B00001CB00F8013B38BF11F8013BA2F1040267
:1004C00098BF00F801CB38BF00F8013B11F00303DF
:1004D00000F02580083AC0F0088051F8043B083A43
:1004E00051F804CBA0E80810F5E7121D5CBF51F8E5
:1004F000043B40F8043BAFF30080D20724BF11F85F
:10050000013B11F801CB48BF11F8012B24BF00F8C3
:10051000013B00F801CB48BF00F8012B704710B534
:10052000203AC0F00B80B1E81850203AA0E81850EB
:10053000B1E81850A0E81850BFF4F5AF5FEA027CAC
:1005400024BFB1E81850A0E8185044BF18C918C01B
:10055000BDE810405FEA827C24BF51F8043B40F8BC
:10056000043B08BF7047D20728BF31F8023B48BFA1
:1005700011F8012B28BF20F8023B48BF00F8012BDF
:10058000704702F0FF0343EA032242EA024200F00E
:1005900002B84FF000020429C0F0128010F0030CE2
:1005A00000F01B80CCF1040CBCF1020F18BF00F866
:1005B000012BA8BF20F8022BA1EB0C0100F00DB815
:1005C0005FEAC17C24BF00F8012B00F8012B48BF73
:1005D00000F8012B70474FF0000200B51346944617
:1005E0009646203922BFA0E80C50A0E80C50B1F18B
:1005F0002001BFF4F7AF090728BFA0E80C5048BF9F
:100600000CC05DF804EB890028BF40F8042B08BF3C
:10061000704748BF20F8022B11F0804F18BF00F838
:10062000012B704770477047704710B500F008F80D
:10063000006810BD10B5044600F002F8046010BD5B
:1006400000487047447600200048704744760020F8
:100650007546FFF7F9FFAE4605006946534620F0A0
:100660000700854618B020B5FFF76CFEBDE82040B6
:100670004FF000064FF000074FF000084FF0000B5E
:1006800021F00701AC46ACE8C009ACE8C009ACE811
:10069000C009ACE8C0098D46704710B50446AFF3F9
:1006A00000802046BDE81040FFF7D7BD0149182063
:1006B000ABBEFEE726000200704707F00BB807F05C
:1006C0009FB807F08BBCF0EE400AF5EEC00AF1EEE1
:1006D00010FA02DDB0EE600A7047B1EE600AFBE787
:1006E000002803D09FED020A80ED000A7047000049
:1006F00000000000002803D0B3EE060A80ED000AD7
:100700007047000070B52DED0C8B84B006460C468A
:1007100015469FED990AF0EE408A9FED970AB0EEDC
:10072000409A9FED950AF0EE40BA9FED930AF0EEE5
:10073000409A9FED910AB0EE40AA0EB104B11DB9E6
:1007400004B0BDEC0C8B70BD8C48FFF7C9FF8C4822
:10075000FFF7D0FF8A48D0ED000A9FED8A1A60EEBD
:10076000810AB0EE600A00F025F9F0EE408A28EE2A
:10077000A80AF0EE408A8248D0ED000AB0EE001AD6
:1007800060EE810A9FED7F1A60EE810AB0EE600A8A
:1007900000F010F9B0EE409A29EE090AB0EE409A46
:1007A000DFED790AB7EE000A00EEA80ADFED770A5E
:1007B00000EEC90ADFED760A20EE200A754880EDCA
:1007C000000A6E4890ED000ADFED730A80EE201AF1
:1007D000B7EE000A31EE000A20EE000A6D48D0EDB7
:1007E000000A80EE801A6D4880ED001A94ED000A30
:1007F000B5EEC00AF1EE10FA0DD194ED010AB5EE96
:10080000C00AF1EE10FA06D194ED020AB5EEC00A64
:10081000F1EE10FA46D09FED580AB0EE408A002063
:10082000019002900390D4ED000A60EEA00A94EDCE
:10083000011AD4ED011A41EE210A94ED021AD4ED09
:10084000021A41EE210AB0EE600A00F0A9F8B0EEFB
:10085000408A94ED000A20EE080A8DED010A94ED1D
:10086000010A20EE080A8DED020A94ED020A20EE3C
:10087000080A8DED030ADDED010AF1EE600AB0EE23
:10088000600AFFF71AFFF0EE409A9DED031AF0EEB2
:10089000410A9DED021AB0EE410AFFF710FFB0EEDB
:1008A00040AA07E09FED340AF0EE409A9FED320A2D
:1008B000B0EE40AA95ED000AB5EEC00AF1EE10FACE
:1008C0000DD195ED010AB5EEC00AF1EE10FA06D190
:1008D00095ED020AB5EEC00AF1EE10FA3CD0B0EE8A
:1008E000690A00F067F8B0EE408AB0EE690AFFF7D7
:1008F000E8FEB0EE40DAB0EE4A0A00F05BF8F0EE47
:1009000040AAB0EE4A0AFFF7DCFEB0EE40BA28EE8D
:100910002A0AD5ED010A20EE200AD5ED000A0DEED7
:10092000200A68EE0B0A95ED021A00EE810AB0EE7D
:1009300040CA95ED010A20EE0B0AD5ED020A0AEE37
:10094000E00AF0EE40CAF0EE6C0AB0EE4C0AFFF797
:10095000B6FEF0EE40BA03E09FED070AF0EE40BAB3
:10096000B0EE4A1AF0EE690AB0EE6B0A304607F0B4
:100970007FFA00BFE4E6000000000000A8010020AC
:10098000AC01002035FA8E3CC1BFAD3B9DF8C536A9
:100990002F7C1C41B0010020506CC24AB4010020E1
:1009A00010B507F083F8B7EE001AC1EE000AB0EEFA
:1009B000600A10BD07F056BB2DE9F0412DED028B0A
:1009C0009AB00546B0EE408A0E461746984600207B
:1009D0001790189019901490159016904DB146B13B
:1009E0003FB1B8F1000F04D0B5EEC08AF1EE10FAB5
:1009F00005D100201AB0BDEC028BBDE8F08196ED68
:100A0000000A8DED170A96ED010A8DED180A96ED94
:100A1000020A8DED190A97ED000A8DED140A97ED83
:100A2000010A8DED150A97ED020A8DED160A17AA37
:100A300014A9284607F06EF8402104A8FFF7CBFD63
:100A400000200090019002900390002417A904A8B0
:100A500008F0D0FF00BF30E004A800EB041090EDD8
:100A6000000AD5ED000A20EE200A04A800EB0410CD
:100A7000D0ED010A95ED011A00EE810A04A800EB01
:100A80000410D0ED020A95ED021A00EE810A04A8C6
:100A900000EB0410D0ED030A95ED031A00EE810A75
:100AA00020EE080AF0EE000A80EE201A684600EBFD
:100AB000840080ED001A601CC4B2042CCCDB00243E
:100AC00010E005EB840090ED000A684600EB84001E
:100AD000D0ED000A30EE200A05EB840080ED000A1C
:100AE000601CC4B2042CECDB284608F051FE012047
:100AF00080E7000001221021014801F0B5BD00008F
:100B00000000024000221021014801F0ADBD0000AC
:100B1000000002407047000001221146014801F028
:100B2000A3BD00000004024000220121014801F0A1
:100B30009BBD00000004024030B5437804781B02DE
:100B40001BB2234300EE103A1B4CB8EEC00AD4EDA2
:100B5000000A20EE200A81ED000AC37885781B0286
:100B60001BB22B4300EE103AF8EEC00A94ED000AD7
:100B700060EE800AC1ED010A437904791B021BB2C1
:100B8000234300EE903AF8EEE00A20EE800A81ED71
:100B9000020A017AC3790904807941EA03210143F9
:100BA00000EE101ADFED050AB8EE400A20EE200A2A
:100BB00082ED000A30BD00007801002000401C4298
:100BC000704708F0C7B807F049BD000010B542787B
:100BD0000378120212B21A4300EE102A124BB8EE3A
:100BE000C00AD3ED010A20EE200A81ED000AC27886
:100BF0008478120212B2224300EE102AF8EEC00AE4
:100C000093ED010A60EE800AC1ED010A4279007994
:100C1000120212B2024300EE902AF8EEE00A20EE31
:100C2000800A81ED020A10BD7801002010B5FFF79F
:100C300071FFFFF7C5FF07F0E5FA08B1802402E075
:100C400007F052FA044607F0A3FC10B144F040004C
:100C500010BD07F02FFC204310BD00002DE9FC4122
:100C600004460D461646002000900190FFF74AFF0B
:100C7000922000F0BFF806226946122000F09CF88E
:100C8000FFF738FF9DF801009DF80010000200B248
:100C9000084300EE100A474FB8EEC00AD7ED000A2D
:100CA00020EE200A85ED000A9DF803009DF8021051
:100CB000000200B2084300EE100AF8EEC00A97EDF9
:100CC000000A60EE800AC5ED010A9DF805009DF856
:100CD0000410000200B2084300EE900AF8EEE00AA9
:100CE00020EE800A85ED020AFFF71EFF0822694602
:100CF000002000F061F8FFF70FFF9DF800000F28BB
:100D000030D19DF803009DF80210000200B20843A4
:100D100000EE100AD7ED010AB8EEC00A20EE200A54
:100D200084ED000A9DF805009DF80410000200B251
:100D3000084300EE100AF8EEC00A97ED010A60EED3
:100D4000800AC4ED010A9DF807009DF80610000214
:100D500000B2084300EE900AF8EEE00A20EE800AA6
:100D600084ED020AFFF7CEFEA22000F043F8022233
:100D70006946222000F020F8FFF7BCFE9DF8000035
:100D80009DF80110C00040EA5110B0F5806F02DB01
:100D9000A0F5006000B200EE100AB4EE001AF8EE02
:100DA000C00AB3EE070A00EE810A86ED000ABDE82C
:100DB000FC8100007801002070B50D46144640F01B
:100DC000800000F017F806E0552000F013F805F851
:100DD000010B641EE4B2002CF6D170BD10B50C46B8
:100DE00040F0800000F006F8552000F003F8207075
:100DF00010BD000001B582B04FF47A70009001235D
:100E000001AA02A9024802F0F5FB9DF804000EBDFC
:100E10000409002002784078D20042EA5010B0F570
:100E2000806F02DBA0F5006000B200EE100AB4EEA5
:100E3000001AF8EEC00AB3EE070A00EE810A81ED4F
:100E4000000A704710B50C46FFF7D4FF2046BDE8F6
:100E50001040FFF7CFBFFEE7014800F0B3BD000030
:100E600060080020014800F0ADBD000088080020A7
:100E700030B58BB00020019009AD234C25E023480C
:100E800000F08AFD70B1606808F004FE50B101AA5C
:100E900003A9606809F04AFB02AB2A4603A91B4874
:100EA00000F0F7FB1A4800F077FD70B1A06808F079
:100EB000F1FD50B101AA03A9A06809F037FB02AB0C
:100EC0002A4603A9124800F0E4FB104800F064FD34
:100ED00020B1606808F0DEFD0028D0D10C4800F099
:100EE0005BFD20B1A06808F0D5FD0028C7D10198AE
:100EF000012806D1074900070860BFF34F8FBFF3F1
:100F00006F8F0BB030BD0000AC00002060080020E7
:100F10008808002004ED00E01CB500200090214A64
:100F200001ABA2F11801204800F0B3FB1F4C30B117
:100F30001C4900236A461839A06809F0F9F9194AD2
:100F400001AB2032A2F11801194800F0A2FB30B128
:100F5000144900236A460831606809F0E9F92078ED
:100F600001280FD10F4A01AB4032A2F118011048FD
:100F700000F08FFB30B10B4900236A4628316068CE
:100F800009F0D6F92078401C00F00100207000988C
:100F9000012806D1074900070860BFF34F8FBFF350
:100FA0006F8F1CBDBC70002088080020AC000020A2
:100FB0006008002004ED00E030B587B01822104929
:100FC00001A8FFF7ACFA0020002201A9082451F87B
:100FD00030309A6051F83030DA6051F830301C61AE
:100FE00001EBC00351F830505B682B6051F8303092
:100FF0009A61DA61401C0328E9D307B030BD0000D4
:1010000050AF000800B58BB0012109910020079076
:10101000089101900290039004900690059001A918
:101020000C4800F0A7FB0B4800F0D1FF0221094853
:1010300000F01DFB0E200A90069001A9064800F062
:1010400099FB054800F0C3FF0221034800F00FFBA5
:101050000BB000BD600800208808002010B50120FA
:1010600007F078FEFBE7000010B508F071FD0022E4
:101070002021402009F00CF8094C6060002220215A
:10108000402009F005F8A06008F082FD606810B10A
:10109000A068002803D1BDE8104000F0E6BA10BDFA
:1010A000AC000020014801F045B80000D40C00203D
:1010B000014801F03FB80000340D0020AFF300807C
:1010C0002DE9F05FFA48FB4AFA4DC06CFA4EF94F31
:1010D0000068DFF8E4C3DFF8DC83DFF8DC93DFF8D7
:1010E000D4A3DFF8D4B3DFF8CCE3F34C483D60364B
:1010F0001837D1140CF1180CA8F1300809F178094F
:101100000AF1300A0BF1300BAEF1180E90423ED9C5
:10111000E84A543A1368A04201D1202235E0A8429F
:1011200001D1202231E0B04201D120222DE0B8428D
:1011300001D1202229E0604501D10A4625E0404541
:1011400001D10A4621E0484501D10A461DE050453B
:1011500001D10A4619E0584502D14FF4001214E0BB
:10116000704502D14FF400120FE0D34A9032904202
:1011700002D14FF4001208E0CE4A4832904202D128
:101180004FF4001201E04FF000621340C3E0CA4A7E
:10119000A83290423ED9C74A583A1368A04201D1BA
:1011A000202235E0A84201D1202231E0B04201D115
:1011B00020222DE0B84201D1202229E0604501D152
:1011C0000A4625E0404501D10A4621E0484501D1C3
:1011D0000A461DE0504501D10A4619E0584502D1A2
:1011E0004FF4001214E0704502D14FF400120FE0EA
:1011F000B14A9032904202D14FF4001208E0AD4A59
:101200004832904202D14FF4001201E04FF00062E8
:10121000134080E0A84A483290423ED9A64A103A8C
:101220005368A04201D1202235E0A84201D12022FA
:1012300031E0B04201D120222DE0B84201D120227C
:1012400029E0604501D10A4625E0404501D10A4622
:1012500021E0484501D10A461DE0504501D10A462A
:1012600019E0584502D14FF4001214E0704502D144
:101270004FF400120FE0904A9032904202D14FF4A6
:10128000001208E08B4A4832904202D14FF400121B
:1012900001E04FF0006213403DE0874A103A1368C6
:1012A000A04201D1202235E0A84201D1202231E024
:1012B000B04201D120222DE0B84201D1202229E004
:1012C000604501D10A4625E0404501D10A4621E0AA
:1012D000484501D10A461DE0504501D10A4619E0B2
:1012E000584502D14FF4001214E0704502D14FF47A
:1012F00000120FE0704A9032904202D14FF4001277
:1013000008E06C4A4832904202D14FF4001201E0EA
:101310004FF000621340002B72D0664A904235D9DC
:10132000A04201D120212DE0A84201D1202129E0B5
:10133000B04201D1202125E0B84201D1202121E095
:1013400060451FD040451DD048451BD0504519D0A1
:10135000584502D14FF4001114E0704502D14FF40A
:1013600000110FE054499031884202D14FF400112E
:1013700008E050494831884202D14FF4001101E0A1
:101380004FF000614B484C380160ADE04A4AA8324A
:10139000904236D9A04201D120212DE0A84201D1AE
:1013A000202129E0B04201D1202125E0B84201D11D
:1013B000202121E060451FD040451DD048451BD06D
:1013C000504519D0584502D14FF4001114E0704532
:1013D00002D14FF400110FE037499031884202D119
:1013E0004FF4001108E033494831884202D14FF4EC
:1013F000001101E04FF000612E485038016073E0A9
:10140000AEE02D4A4832904235D9A04201D1202188
:101410002DE0A84201D1202129E0B04201D12021B4
:1014200025E0B84201D1202121E060451FD0404590
:101430001DD048451BD0504519D0584502D14FF416
:10144000001114E0704502D14FF400110FE01A4969
:101450009031884202D14FF4001108E0154948311B
:10146000884202D14FF4001101E04FF000611248B0
:101470001038C16038E0A04201D1202131E0A842FB
:1014800001D120212DE0B04201D1202129E0B84234
:1014900001D1202125E0604523D0404521D0484599
:1014A0001FD050451DD0584508D14FF4001118E009
:1014B000040900205864024010600240704502D1C7
:1014C0004FF400110DE02749884202D14FF400117A
:1014D00007E02549884202D14FF4001101E04FF0A6
:1014E00000612048A0388160204C207880070CD50E
:1014F000207820F002002070207840F00400207056
:10150000012211461A4801F0AFF86078194D8007A2
:101510000CD5607820F002006070607840F0040024
:10152000607001221021284601F09EF8A078800703
:101530000CD5A07820F00200A070A07840F0040044
:10154000A07001221021284601F08EF807F07AFAE7
:101550002078400704D50848016841F00101016086
:10156000BDE8F09FA0600240A0640240D0000020CF
:101570000004024000000240103C0140014800F01D
:10158000D9BD0000BC090020014800F0D3BD000017
:10159000740C0020014800F0CDBD0000940D002027
:1015A000014800F0C7BD0000140C00200168CAB259
:1015B000103A1823B2FBF3F2064B9B5CC3656FF342
:1015C0000901032A02D9091D816500E08165806D4A
:1015D0007047000030AF000810B5014600208A6A4D
:1015E0008B694FF0C074002B0ED0B3F5005F1AD09A
:1015F00062B3012A2AD0022A28D0032A03D1C96A59
:10160000C90100D5012010BD1AB1012A06D0022A55
:10161000F9D1C96AC901F6D5012010BDC96AA14234
:10162000FBD1012010BD52B1012A0AD0022A06D0F6
:10163000032AF7D1C96AA142F4D1012010BD0120CB
:1016400010BDC96AC901FBD5012010BD012010BD24
:101650007047012000F00CBF082000F009BF1020E7
:1016600000F006BF202000F003BF72B6FEE790F83E
:101670002020012A07D0022A05D0416A41F48021A6
:10168000416201207047006842690A4342610020BC
:101690007047F0B590F820500468A468012D07D079
:1016A000022D05D0416A41F4802141620120F0BD44
:1016B00004F0806504F00066354301D1E50053D5A0
:1016C000C4F301640125A5401D608B684FF4C0750B
:1016D0009BB1CE6805EB041733434E6843EAC6035B
:1016E0000668F3514FF4C273076803EB04130E69E5
:1016F000FE50097D012909D00DE00E88CB6805EB6D
:10170000041743EA46530668F351EBE70168CE58E5
:1017100046F48076CE501179D379567941EA036147
:1017200093791B0443EA062319434FF4C6760368F2
:1017300006EB041699511178D37841EA0361937846
:1017400052781B0443EA022211434FF4C473026827
:1017500003EB0413D150006805EB0411425842F02A
:10176000010242500020F0BD416A41F40011416283
:101770000120F0BD10B590F82020012A07D0022AE0
:1017800005D0416A41F480214162012010BD3C48EE
:1017900000F50070026842F001020260026822F463
:1017A0007C52026002684B6A42EA032202600A7DB0
:1017B00002F01F0301229A40C3699343C361A0F55D
:1017C0000070CB69B3B9D0F80C329343C0F80C3237
:1017D0008C894B6864F31F434C6900EBC404C4F864
:1017E00040320C890B6864F31F434C6900EBC4045E
:1017F000C4F84432CB69012B16D1D0F80C32134314
:10180000C0F80C320C884B6864F31F434C6900EB42
:10181000C404C4F840320C89CB6864F31F434C699C
:1018200000EBC404C4F844328B697BB1D0F80432B5
:101830001343C0F804320B6973B1D0F81432134368
:10184000C0F81432096A01290CD010E0D0F8043233
:101850009343C0F80432EEE7D0F814329343C0F853
:101860001432EFE7D0F81C121143C0F81C12D0F864
:10187000001221F00101C0F80012002010BD00008C
:1018800000640040704770B590F82040012C07D0EC
:10189000022C05D0416A41F480214162012070BDD3
:1018A00021B104682469A4072AD003E00468E4682D
:1018B000A4071FD04FF4D874056804EB01142D5908
:1018C00005F0040595600DB305682D59ED085560C8
:1018D00005682C5904F00204D4604FF4DA740568EA
:1018E00004EB01142E5906F00F06082E13D3082519
:1018F000156114E0416A41F400114162012070BD9C
:10190000416A41F400114162012070BD05682D5902
:101910006D0D1560DCE72D5905F00F0515610568A3
:101920002D59C5F30725956105682C59240C546180
:101930004FF4DC72046802EB0112A4581C700468B6
:10194000A458240A5C700468A458240C9C70046891
:10195000A258120EDA704FF4DE72046802EB011224
:10196000A4581C710468A458240A5C710468A45823
:10197000240C9C710468A258120EDA7131B100680F
:10198000016941F020010161002070BD0068C1685B
:1019900041F02001C160F7E70246002092F82010D4
:1019A000012901D002290CD111688A68520100D5A1
:1019B00001208A68120100D5401C8968C90000D541
:1019C000401C70472DE9F05F0546002428684669F1
:1019D000D0F804908768D0F80CA0D0F810B0D0F8F8
:1019E0001880F10748D0F90714D001218160B807A9
:1019F00003D5284600F018FB0CE0780702D54FF419
:101A0000006407E0380702D54FF4805402E028460E
:101A100000F009FBF80516D529684FF4807088603E
:101A2000B80503D5284600F001FB0CE0780502D587
:101A300044F4005407E0380502D544F4804402E041
:101A4000284600F0F2FAF80316D529684FF48030E2
:101A50008860B80303D5284600F0EAFA0CE0780362
:101A600002D544F4004407E0380302D544F480343E
:101A700002E0284600F0DBFA300707D55FEACA60CB
:101A800004D544F4007429681020C86070074FF032
:101A9000080707D55FEA0A7004D52868C76028469A
:101AA00000F0B8F9B00706D52868C068800702D0F2
:101AB000284600F0B1F9700607D55FEACB6004D57F
:101AC00044F48064296810200861B00607D55FEAF5
:101AD0000B7004D528680761284600F075FAF006F7
:101AE00006D528680069800702D0284600F06DFA04
:101AF000B00308D55FEAC96005D5296810204860A1
:101B0000284600F063FAF00307D55FEA097004D5B0
:101B100028684760284600F08CFA300446D55FEA12
:101B2000497040D5F00504D55FEAC87001D044F093
:101B30000104B00504D55FEA887001D544F00204C1
:101B4000700504D55FEA487001D544F004043005FF
:101B500029D518F0700F26D008F07000402815D055
:101B600006DC102809D020280AD0302816D10AE037
:101B700050280ED0602811D10EE044F008040DE08A
:101B800044F010040AE044F0200407E044F040046C
:101B900004E044F0800401E044F480742868816922
:101BA00021F070018161296804204860002C05D073
:101BB000686A204368622846FFF764FEBDE8F09F2C
:101BC00070B50446002C03D094F8200010B104E056
:101BD000012070BD204600F09DF82068016841F0AA
:101BE0000101016000F048FD054605260CE000F00B
:101BF00043FD401B0A2807D9606A40F40030606248
:101C000084F82060012070BD20684068C007EED0D5
:101C10002068016821F00201016000F02DFD0546F9
:101C20000CE000F029FD401B0A2807D9606A40F447
:101C30000030606284F82060012070BD2068406838
:101C40008007EED4207E01283FD02068016821F073
:101C500080010160607E01283DD02068016821F08C
:101C600040010160A07E01283BD02068016821F07E
:101C700020010160E07E012839D02068016841F030
:101C800010010160207F012837D02068016821F011
:101C900008010160607F012835D02068016821F0CB
:101CA00004010160D4E902010843D4E9041211439C
:101CB00008436168491E08432168C86100206062CA
:101CC000012084F82000002070BD2068016841F0E8
:101CD00080010160BEE72068016841F040010160B9
:101CE000C0E72068016841F020010160C2E7206878
:101CF000016821F010010160C4E72068016841F02B
:101D000008010160C6E72068016841F00401016034
:101D1000C8E700002DE9F04186B00446142101A86F
:101D2000FEF759FC364B374ADFF8D0801868216837
:101D3000344C03260227401C103200254FF0090CBA
:101D4000414527D11860012807D1106840F0007084
:101D50001060106800F000700090206840F00800EB
:101D60002060206800F0080000900196029703951B
:101D70000496CDF814C001A9234800F085FB002289
:101D80000521142001F01CF8142001F00BF806B016
:101D9000BDE8F081DFF874804145F8D1116841F069
:101DA00080611160116801F0806100911860012864
:101DB00007D1106840F000701060106800F00070EB
:101DC0000090206840F002002060206800F00200CF
:101DD000009060200190029703950496CDF814C0FE
:101DE00001A90B4800F050FB00220521402000F023
:101DF000E7FF402000F0D6FFC9E700000064004084
:101E00001400002030380240000C024000680040FE
:101E100000040240704700007CB504466248634DF0
:101E200084423CD16B462A4600212046FFF72BFD19
:101E3000296840F20220A1F2022281420CD007DC84
:101E4000B1F5987F28D0A1F50070013827D103E0C3
:101E5000012A01D0022A22D1491EC8B2544901EBFD
:101E60000011088808819DF801009DF8002040EAD3
:101E7000022008809DF803009DF8022040EA02201D
:101E800048809DF805009DF8042040EA02208880E3
:101E90009DF80600887102E0684607F081FD45481C
:101EA00084423DD16B46414A00212046FFF7EBFCBE
:101EB000286840F20522A0F20521904237D030DC9C
:101EC0003A49B0F5807FA1F10C015FD0B0F5817F78
:101ED0004CD0A0F58070053822D19DF80000364C1A
:101EE00000F00F012160000960609DF802109DF86C
:101EF000010041EA0020A0601021F2EE090ABAEECA
:101F0000090A07F005FD10EE100A08F04FFF9FEDDB
:101F10002B1B53EC112B08F04BFE08F017FEE06171
:101F20007CBD012903D0022901D00329F8D1C8B210
:101F3000244901EB0010018801819DF801109DF8F2
:101F4000002041EA022101809DF803109DF8022043
:101F500041EA022141809DF805209DF8041042EAE3
:101F6000012181809DF8061081717CBD00206A46A8
:101F700002EB400312F810405B7843EA042301EBC4
:101F800040046380401C0428F2DB7CBD9DF8010006
:101F90009DF8002040EA022048819DF80300087067
:101FA0009DF8050048707CBD600800208870002006
:101FB0007874002088080020B8740020073422625A
:101FC00094A94C403874002070477047704770B532
:101FD000044694F82000012805D0606A40F40020EF
:101FE0006062012070BD022084F820002068016832
:101FF00021F00101016000F03FFB05460DE000F01B
:102000003BFB401B0A2808D9606A40F4003060623C
:10201000052084F82000012070BD20684068C007BA
:10202000EDD1606270BD7047704770477047704770
:102030007047704710B50446002C02D0607910B18B
:1020400006E0012010BD00202071204600F004F8B9
:1020500001206071002010BD08B500680649884263
:1020600008D10648016841F480510160006800F41D
:102070008050009008BD000000300240303802401F
:102080002DE9F0410446A76D00F0F6FA054694F8F4
:1020900035000026022806D08020606584F8346070
:1020A0000120BDE8F0812068016821F0160101607F
:1020B0002068416921F080014161206C08B9A06C61
:1020C00020B12068016821F00801016020680168E2
:1020D00021F0010101600BE000F0CEFA401B052861
:1020E00006D9202034342062032060702670D8E79F
:1020F00020680068C007EFD134343F2094F82810DE
:102100008840B8600120607026700020C9E790F810
:102110003510022903D08021416501207047052137
:1021200080F835100068016821F00101016000208D
:10213000704700002DE9F84304464FF00009CDF840
:1021400000906F484FF416510068B0FBF1F7A56D91
:102150002E6894F85C00082202FA00F1314210D097
:102160002068016849070CD5016821F0040101606D
:1021700094F85C0002FA00F1A960606D40F0010083
:10218000606594F85C104FF0010808FA01F03042E5
:1021900008D021684969090604D5A860606D40F03F
:1021A0000200606594F85C1004208840304208D03A
:1021B00021680968890704D5A860606D40F00400B3
:1021C000606594F85C1010208840304220D021686F
:1021D000096809071CD5A8602068016849030CD567
:1021E0000068000304D4216C91B1204688470FE0B9
:1021F000A16C69B1204688470AE00168C90503D48B
:10220000016821F008010160216C09B1204688476E
:1022100094F85C102020884030424CD02168096836
:10222000C90648D5A86094F8350005280BD0206869
:102230000168490330D50068000328D4616C51B3AC
:102240002046884737E02068016821F016010160C8
:102250002068416921F080014161206C08B9A06CBF
:1022600020B12068016821F00801016094F85C1039
:102270003F208840A86084F8358084F83490216D30
:1022800000293BD001B02046BDE8F0430847E16B90
:1022900009B1204688470EE00168C90507D40168E6
:1022A00021F01001016084F8358084F83490E16BEE
:1022B00009B120468847606D00281FD0606DC007B7
:1022C00014D0052084F835002068016821F0010150
:1022D00001600098401C0090B84203D82068006854
:1022E000C007F6D184F8358084F83490E16C002979
:1022F00004D001B02046BDE8F0430847BDE8F883AC
:102300002C0000202DE9F041044600F0B5F9054607
:102310005CB1022084F83500002684F8346020681F
:10232000016821F0010101600DE00120BDE8F081AC
:1023300000F0A2F9401B052805D920206065032084
:1023400084F83500F2E720680068C007F0D1216802
:102350000A6820480240D4E901031843D4E9033550
:102360002B43184363691843A3691843E36918436F
:10237000236A18431043626A042A03D1D4E90B2369
:102380001A43104308602068406920F00700656A1E
:1023900029460543012704290DD1A06A0543E06AB7
:1023A00048B12046FFF718F928B14020606584F84D
:1023B00035700120BAE7206845612046FFF7F6F83E
:1023C00094F85C203F2191408160666584F8357007
:1023D0000020ABE73F8010F010B5234C10281BD035
:1023E00020282BD0082837D0012814D1607108F09C
:1023F000D7F901280FD004F10C01A06907F0B8FC4F
:10240000E068002807D019494FF080500860BFF3FA
:102410004F8FBFF36F8F10BD092006F03BF9607836
:1024200040F001006070A07840F00100A0702079B9
:102430000028F0D0BDE8104006F004BB082006F0EC
:1024400029F9207840F00100207020790028E2D09E
:10245000BDE8104006F0F6BA0A2006F01BF9E07855
:1024600040F00100E07010BDD000002004ED00E05D
:1024700010B504490A68024202D00860FFF7ACFFB9
:1024800010BD0000143C01402DE9F84F0022DFF898
:102490009C914FF0010803274FF00F0C09F1040A3B
:1024A000A9F1040B08FA02F50B682B40AB426ED180
:1024B0000C7904F00304012C01D0022C15D186689C
:1024C000540007FA04FE26EA0E06D1F80CE00EFAD4
:1024D00004FE4EEA060EC0F808E04468AC430D79ED
:1024E000C5F300159540254345600C79E443A407E6
:1024F00008D0C568540007FA04F6B5438E68A640B4
:102500002E43C6600C7904F00304022C11D1D408C8
:1025100000EB8406356A5407E40E0CFA04FE25EA43
:102520000E05D1F810E00EFA04FE4EEA050EC6F8CC
:1025300020E00568540007FA04F6B5430E7906F06A
:102540000306A6402E4306604C6814F4403F67D053
:10255000374C256845F480452560246804F48044A0
:102560000094344C22F003052E19D6F8085894072D
:102570004FEA147E0CFA0EF4A5432F4CA04201D171
:10258000002424E02D4CA04202D101241FE047E0AA
:102590002B4CA04201D1022419E02A4CA04201D1C7
:1025A000032414E0284CA04201D104240FE0274C5E
:1025B000A04201D105240AE0254CA04201D1062405
:1025C00005E0244CA04201D1072400E0082404FACD
:1025D0000EF42C43C6F80848D9F800409C434D68D7
:1025E000ED0200D51C43C9F80040DAF800409C43D6
:1025F0004D68AD0200D51C43CAF80040DBF800402E
:102600009C434D68AD0300D51C43CBF80040074DFB
:10261000083D2C689C434E68F60300D51C432C6093
:10262000521C102AFFF43EAFBDE8F88F083C014071
:1026300044380240003001400000024000040240E3
:1026400000080240000C024000100240001402404A
:1026500000180240001C0240426921EA02030A40BD
:1026600043EA024181617047002A01D081617047CD
:1026700009048161704700000148806870470000CC
:102680002000002070B50446002C04D094F83D00D2
:10269000002510B106E0012070BD84F83C502046B2
:1026A00000F0ACFA242084F83D002068016821F095
:1026B000010101602068016841F400410160206867
:1026C000016821F40041016000F076FC4F4B616825
:1026D000994203D84E49884203D304E04D498842C9
:1026E00001D2012070BD4C49B0FBF1F1226856685F
:1026F00026F03F060E43566062689A4201D8491C94
:1027000007E04FF4967251434FF47A72B1FBF2F145
:10271000491C2268166A26F03F063143116261683F
:10272000994210D84900401EB0FBF1F2521CC2F38E
:102730000B02042A01D2042022E0B0FBF1F0401C7D
:10274000C0F30B001CE0A268F2B301EBC10303EB82
:102750000116431EB3FBF6F35B1C43F480431B05D9
:1027600049D092B301EBC10202EB0111401EB0FB54
:10277000F1F0401CC0F30B0040F4804040F40040F6
:102780002168CA694CF6FF739A431043C861D4E9C3
:10279000071001432068026822F0C0021143016063
:1027A000D4E9030101432068826848F2FF339A4369
:1027B00011438160D4E9051001432068C26822F00A
:1027C000FF021143C16001E00EE016E020680168DD
:1027D00041F0010101602564202084F83D0025635B
:1027E00084F83E50002070BD01EB4106431EB3FB50
:1027F000F6F35B1CB3E70120C2E701EB4101401E89
:10280000B0FBF1F0401CC0F30B00B7E7A08601005D
:1028100080841E0000093D0040420F002DE9FF4F5B
:1028200083B00446DDE911988A469346109FFFF76E
:1028300023FF054694F83D00202803D0022007B06E
:10284000BDE8F08F1923012298492046009501F038
:102850002BFF08B10220F2E794F83C00012807D0D2
:10286000012084F83C0020680168C90702D005E017
:102870000220E4E7016841F001010160206801687D
:1028800021F400610160222084F83D00402084F89A
:102890003E00002626646762A4F82A90608D208599
:1028A0008348E062CDE900855A4651462046069BA2
:1028B00001F0CCFD08B10120C1E7208D48B101280D
:1028C00010D002281CD02068416980690290794F9D
:1028D000E1E02068416981690291016841F4007179
:1028E0000160F4E72068016821F4806101602068DC
:1028F000416981690291016841F400710160E6E774
:102900002068016821F4806101602068016841F459
:10291000006101602068416980690290D7E703285F
:102920007ED801280BD002281FD04346002239460A
:102930002046009501F0B8FEF0B301207FE72A465B
:102940004146204601F06AFF08B1012077E7206880
:102950000069616A0870606A401C6062208D401ED8
:102960002085608D401E608595E0434600223946F3
:102970002046009501F098FE08B101205FE720682D
:10298000016841F40071016020680069616A0870A3
:10299000606A401C6062218D491E2185618D491E3F
:1029A0006185216809690170606A401C6062208D40
:1029B000401E2085608D00E002E0401E60856AE0D8
:1029C0002068016821F48061016020680069616A03
:1029D0000870606A401C6062208D401E2085608DFA
:1029E000401E60854346002239462046009501F08E
:1029F0005BFE08B1012022E72068016841F4007104
:102A0000016020680069616A0870606A401C606249
:102A1000218D491E2185618D491E6185216800E057
:102A20000BE009690170606A401C6062208D401EE5
:102A30002085608D401E60852DE02A464146204657
:102A400001F0ECFE08B10120F9E620680069616A36
:102A50000870606A401C6062208D401E81B2218532
:102A6000608D401E608520684269D243520712D4AF
:102A7000032903D1016821F48061016020680069A5
:102A8000616A0870606A401C6062208D401E20856B
:102A9000608D401E6085208D00287FF440AF20208F
:102AA0003C346070A67026700020C8E6020010005A
:102AB0000000FFFF040001002DE9FF4F83B0044632
:102AC000DDE911988A469346109DFFF7D5FD06462D
:102AD00094F83D00202803D0022007B0BDE8F08F15
:102AE0001923012243492046009601F0DDFD08B17B
:102AF0000220F2E794F83C00012807D0012084F876
:102B00003C0020680168C90702D005E00220E4E724
:102B1000016841F0010101602068016821F4006151
:102B20000160212084F83D00402084F83E00002709
:102B300027646562A4F82A90608D20852E48E062A3
:102B4000CDE900865A4651462046069B01F01EFDFF
:102B500080B30120C1E732464146204601F099FE8C
:102B600048B1206C042804D12068016841F4007148
:102B700001600120B1E7606A216800780861656A38
:102B80006D1C6562208D401E80B22085618D491EBE
:102B9000618523685969C94349070BD450B1287826
:102BA0001861606A401C6062208D401E2085608D27
:102BB000401E6085208D0028CDD1324641462046FA
:102BC00001F046FD48B1206C042804D1206801685A
:102BD00041F40071016001207FE71F3454F81F0C9D
:102BE000016841F4007101602020A077E7776777E2
:102BF000002072E7020010000000FFFFF0B587B070
:102C00000446142102A8FDF7E6FC1D49206888420D
:102C100033D11C48016841F004010160016801F0F2
:102C200004010191016841F001010160006800F0B8
:102C3000010001904FF400700290122703970124C5
:102C40000494032605960425069502A90E48FFF76D
:102C50001BFC20020290039704940596069502A996
:102C60000A48FFF711FC07481030016841F40001E1
:102C70000160006800F40000019007B0F0BD0000A2
:102C8000005C004030380240000802400000024072
:102C9000024881680278114481607047200000205A
:102CA00010B50B48016841F400710160016841F4FE
:102CB00080610160016841F480710160032000F0CF
:102CC0009FF80F2000F006F800F050F8002010BD2B
:102CD000003C024030B587B0054600241F4801681B
:102CE00041F001010160006800F00100009001A9BD
:102CF00002A800F03DF90598B0B100F05DF9400080
:102D00001749B0FBF1F1491E16484FF080420260AE
:102D100040F2E732C260416004618460846100F087
:102D2000B1FD04461CB115E000F046F9E8E70D4896
:102D300000F03EFE04466CB91C2000F033F8102D64
:102D400007D2002229461C2000F03AF80648056008
:102D500000E0012407B0204630BD000040380240AA
:102D600040420F00F40D00202400002082B00C48E7
:102D7000016841F480410160006800F480400190E6
:102D80000748001F016841F080510160006800F0B1
:102D90008050019000220F21901E02B000F010B868
:102DA00044380240002809DB00F01F020121914055
:102DB0004009800000F1E020C0F8001170470000D9
:102DC000F0B40D460D4B1B68C3F30223C3F1070497
:102DD000042C00D90424191D072901D2002300E086
:102DE000DB1E012606FA04F1491E294099409E4047
:102DF000761E16403143F0BC04F05CBC0CED00E0E4
:102E000000F00701054A10684FF6FF03184040EA3A
:102E10000120034908431060704700000CED00E0FA
:102E20000000FA052DE9F04704460D46002C13D0AA
:102E3000DFF82891D9F80000EFB200F00700A842AF
:102E40000CD289F80070D9F8000000F00700A84201
:102E500004D00120BDE8F0870120FBE72068404E48
:102E6000810712D5400703D5306840F4E050306048
:102E70002078000703D5306840F460403060306847
:102E8000A16820F0F000084330602078C00731D0FE
:102E9000334960680839012808D002280BD003287C
:102EA00009D0096889070BD40120D3E70968890391
:102EB00006D40120CEE70968890101D40120C9E7C1
:102EC000316821F0030101433160FFF7D5FB8046F3
:102ED00041F2883A07E0FFF7CFFBA0EB080050452E
:102EE00001D90320B6E73068616800F00C00B0EB50
:102EF000810FF0D1D9F8000000F00700A84209D9ED
:102F000089F80070D9F8000000F00700A84201D04D
:102F100001209FE72078400705D53068E16820F45C
:102F2000E050084330602078000706D530682169FA
:102F300020F4604040EAC100306000F05DF8316884
:102F4000084AC1F30311515CC840074908600748AB
:102F50000068FFF7BFFE00207CE70000003C024055
:102F60000838024038AF00082C0000202400002060
:102F70000F2202600B4A136803F0030343601368D7
:102F800003F0F0038360136803F4E053C360126836
:102F900002F46042D20802610348006800F00700B2
:102FA0000860704708380240003C02400148006851
:102FB000704700002C00002000B5FFF7F7FF044920
:102FC0000968044AC1F38221515CC84000BD000079
:102FD0000838024048AF000800B5FFF7E7FF044992
:102FE0000968044AC1F34231515CC84000BD000089
:102FF0000838024048AF000810B51748006810F0C4
:103000000C01164816D0164B042912D0082911D1EC
:10301000114C241F216801F03F02216849020AD5A2
:103020002068C0F38810A0FB03010023FDF79CF982
:1030300009E0184610BD21680023C1F38811A1FBE7
:103040000001FDF791F92168C1F30141491C4900D4
:10305000B0FBF1F010BD0000083802400024F4007D
:10306000001BB7002DE9F84F0446002C13D0207840
:10307000DFF8A083C007A8F1040556D008F10400CA
:103080000168C1F3810101290CD00068C0F38100FF
:10309000022803D00DE00120BDE8F88FD8F8000029
:1030A000400206D5286880033FD5606870BB0120C8
:1030B000F2E76068B0F5803F10D0B0F5A02F12D0D5
:1030C000286820F480302860286820F48020286058
:1030D0006068E0B1FFF7D0FA064614E0286840F4D3
:1030E00080302860F4E7286840F480202860286851
:1030F00040F480302860EBE7FFF7BEFA801B6428BD
:1031000001D90320C8E728688003F5D50DE0FFF753
:10311000B3FA064606E0FFF7AFFA801B642801D930
:103120000320B9E728688003F5D42078BA4F8007D8
:103130004FF0000948D5B748001D016811F00C0F89
:1031400008D00068C0F38100022813D1D8F800002D
:1031500040020FD42868800704D5E068012801D018
:10316000012099E72868216920F0F80040EAC100B1
:10317000286029E0E068B8B101203860FFF77CFAE8
:10318000064606E0FFF778FA801B022801D90320E3
:1031900082E728688007F5D52868216920F0F800C3
:1031A00040EAC10028600FE0C7F80090FFF764FA1A
:1031B000064606E0FFF760FA801B022801D90320CB
:1031C0006AE728688007F5D42078000729D5DFF85A
:1031D00044A2924861690AF1700A89B10121016033
:1031E000FFF74AFA064606E0FFF746FA801B022878
:1031F00001D9032050E7DAF800008007F4D510E089
:10320000C0F80090FFF738FA064606E0FFF734FAF8
:10321000801B022801D903203EE7DAF8000080076E
:10322000F4D42078400778D54FF0000A79483C3034
:103230000068C0000BD477483C30016841F08051F1
:103240000160006800F0805000904FF0010ADFF844
:10325000D0B1DBF80000C00514D4DBF8000040F466
:103260008070CBF80000FFF707FA064606E0FFF78C
:1032700003FA801B022801D903200DE7DBF80000C8
:10328000C005F4D5634EA0686C3601280FD0052820
:1032900012D0306820F001003060306820F0040067
:1032A0003060A068F8B1FFF7E7F9834617E03068AF
:1032B00040F001003060F4E7306840F00400306016
:1032C000306840F001003060EBE7FFF7D5F9A0EB84
:1032D0000B0141F28830814201D90320DCE63068DD
:1032E0008007F2D510E0FFF7C7F9834609E0FFF742
:1032F000C3F9A0EB0B0141F28830814201D90320D0
:10330000CAE630688007F2D4BAF1010F05D141480E
:103310003C30016821F080510160A069C0B33D4993
:10332000091D09684FF0FF36C1F38101022946D01B
:10333000022805D0C7F86090FFF79EF904463AE0EE
:10334000C7F86090FFF798F9814607E0FFF794F916
:10335000A0EB0900022801D903209DE6286880011E
:10336000F4D4D4E907010843616AA26A890106EB33
:10337000520241EA0241084394F82C1040EA0160ED
:10338000C8F8000001203866FFF776F9044607E028
:103390003DE0FFF771F9001B022801D903207BE60D
:1033A00028688001F5D532E0FFF766F9001B022896
:1033B00001D9032070E628688001F5D427E00128B0
:1033C00023D0D8F80000E26900F4800191421AD1BC
:1033D000226A00F03F01914215D147F6C071626A3E
:1033E0000140B1EB821F0ED1A26A00F4403106EB1E
:1033F0005202B1EB024F06D194F82C1000F070602D
:10340000B0EB016F03D0012046E6012044E6002026
:1034100042E600000438024000004742800E474266
:103420000070004070B50446002C09D0606A002589
:1034300040B125616561A56294F8510040B10CE08E
:10344000012070BD6068B0F5827FF4D0E561F2E7DD
:1034500084F85050204600F045F8022084F85100CE
:103460002068016821F040010160A088218900F4F2
:10347000827001F404410843A18901F4006108430A
:10348000217C01F002010843217D01F00101084384
:10349000218B01F400710843217F01F038010843BA
:1034A00094F8201001F080010843218D01F40051AF
:1034B000084321680860A069042101EA104094F8DB
:1034C000241001F010010843216848602068C16998
:1034D00021F40061C1616565012084F8510000207C
:1034E00070BD00002DE9F04387B00546142102A805
:1034F000FDF771F83949286888426CD100263848B0
:10350000016841F480510160006800F4805001902E
:1035100033481438016841F002010160016801F08C
:1035200002010191016841F001010160006800F0B1
:1035300001000190182002904FF00208CDF80C8095
:103540004FF00109CDF81090032405940527069744
:1035500002A92448FEF798FF80200290CDF80C8045
:10356000CDF810900594069702A91F48FEF78CFF2E
:103570001F4C1E4820604FF0C068C4F80480A6604D
:10358000E660071527616661A661E6614FF4403089
:10359000206266622046FEF7B5FE08B1FEF765F8C8
:1035A000EC64A5631148124C183060342060C4F8F4
:1035B00004804020A060E66027616661A661E66144
:1035C000C002206266622046FEF79CFE08B1FEF74C
:1035D0004CF8AC64A56307B0BDE8F083003001404F
:1035E00044380240000402400000024040640240AF
:1035F0005C0900202DE9FF4F81B004460E9E9346E2
:103600001F460125FFF738F8804694F8510061689D
:1036100001280AD0B1F5827F03D1A16809B9042835
:1036200003D0022005B0BDE8F08F0298A0B3BBF133
:10363000000F32D0380030D094F8500001282ED03E
:103640004FF0010A84F850A094F85100042802D0E9
:10365000052084F851004FF00009C4F85490C4F8D4
:1036600038B0E787A78702982063E786A786C4F863
:103670004090C4F8449020680168490603D401686A
:1036800041F040010160E068B0F5006F09D060686A
:10369000F0B3012F4DD082E0FFE70120C2E7022006
:1036A000C0E7606808B1012F3CD1206B2168008819
:1036B000C860206B801C2063E08E401EE08631E0F5
:1036C0002068816889070DD5E18E59B1012D09D196
:1036D000216B0988C160206B801C2063E08E401E36
:1036E000E086002520688168C9070BD0E18F49B1C9
:1036F000C068A16B0880A06B801CA063E08F401E97
:10370000E0870125FEF7B8FFA0EB0800B04200E01B
:103710000FE007D3701C05D084F851A084F85090B6
:1037200003207FE7E08E0028CAD1E08F0028C7D1B0
:103730003BE0206B216800780873206B401C2063FD
:10374000E08E401EE0862AE02068816889070DD55A
:10375000E18E59B1012D09D1216B09780173206BDC
:10376000401C2063E08E401EE086002520688168B2
:10377000C9070BD0E18F49B1C068A16B0870A06B7D
:10378000401CA063E08F401EE0870125FEF774FF18
:10379000A0EB0800B04201D3701C12D18EB1E08EB4
:1037A0000028D1D1E08F0028CED1424631462046B4
:1037B00003F060FB58B12020606584F85090012030
:1037C00030E784F851A084F8509003202AE7A068DD
:1037D00018B92068C1688068009084F851A084F806
:1037E0005090606D08B101201CE700201AE7704777
:1037F0007047000070B590F83C20012A31D00126B6
:1038000080F83C60022280F83D200268546893688A
:1038100024F070050C682C435460134C0268A242DB
:1038200014D0B2F1804F11D0104CA2420ED0104CE7
:10383000A2420BD00F4CA24208D00F4CA24205D09E
:103840000E4CA24202D00E4CA24204D123F08003BF
:103850004968194391603C30467000210170002096
:1038600070BD022070BD0000000001400004004057
:1038700000080040000C00400004014000400140EE
:103880000018004010B50446002C03D094F83D0009
:1038900010B107E0012010BD002084F83C00204654
:1038A00000F016F8022084F83D00211D206803F086
:1038B00003FC01203D3460726070A070E0702071E4
:1038C0006071A071E07120722070002010BD0000B6
:1038D00010B586B00446142101A8FCF77CFE2E4AE0
:1038E00020682E49904228D1086840F00200086004
:1038F000086800F00200009028481038016841F084
:1039000004010160006800F004000090901501902F
:10391000022002900121039103210491059001A945
:103920001F48FEF7B1FD002205211D20FFF748FAD0
:103930001D20FFF737FA06B010BD1A4A904208D191
:10394000086840F004000860086800F00400009077
:10395000F1E7154A904210D1086840F0080008606D
:10396000086800F008000090002205213220FFF7CF
:1039700027FA3220FFF716FADDE70C498842DAD140
:103980000648001D016841F400310160006800F440
:1039900000300090CFE700000004004040380240B3
:1039A0000008024000080040000C004000440140B4
:1039B00090F83D10012901D001207047022180F8C4
:1039C0003D100168CA6842F00102CA6000681449EB
:1039D000884214D0B0F1804F11D0124988420ED0E5
:1039E000114988420BD01149884208D010498842B9
:1039F00005D01049884202D00F49884209D1816818
:103A000001F00701062908D0016841F001010160B9
:103A100003E0016841F001010160002070470000EF
:103A2000000001400004004000080040000C00407D
:103A300000040140004001400018004070B50446F9
:103A4000002594F83C00012817D0012684F83C603A
:103A5000022084F83D002068826822F0770222F478
:103A60007F4282600868502838D00DDC202853D06F
:103A700005DC90B3102811D14EE0022070BD302833
:103A80004AD040280AD13DE0602831D070280CD0BF
:103A9000B0F5805F03D0B0F5005F12D001253C3453
:103AA000667000202070284670BDCB68D1E90121E6
:103AB000206803F07CFB2068816841F07701816019
:103AC000EDE7CB68D1E90121206803F070FB2068A5
:103AD000816841F480418160E1E71DE0CA6849687E
:103AE000206803F047FC5021206803F06AFBD6E70A
:103AF000CA684968206803F04EFC6021206803F022
:103B000060FBCCE7CA684968206803F033FC4021B9
:103B1000206803F056FBC2E722680146104603F016
:103B200050FBBCE770472DE9F04104462068C568AA
:103B300006694FF00007B10714D5A90712D5F91E81
:103B400001610120207720688069800703D020462A
:103B5000FFF7E8FF05E0204600F0C6F8204600F039
:103B600056F92777700717D5680715D521686FF0C4
:103B700004000861022020772068806910F4407FEB
:103B800003D02046FFF7CEFF05E0204600F0ACF85A
:103B9000204600F03CF92777300716D5280714D5C2
:103BA00021686FF008000861042020772068C06950
:103BB000800703D02046FFF7B5FF05E0204600F060
:103BC00093F8204600F023F92777F00617D5E8068A
:103BD00015D521686FF01000086108202077206853
:103BE000C06910F4407F03D02046FFF79BFF05E03B
:103BF000204600F079F8204600F009F92777F00711
:103C000008D0E80706D021686FF00100086120465F
:103C100000F06CF9300608D5280606D521686FF04B
:103C2000800008612046FFF7E2FD700608D56806AF
:103C300006D521686FF040000861204600F05DF96C
:103C4000B0060AD5A80608D521686FF020000861E3
:103C50002046BDE8F041FFF7CBBDBDE8F081000094
:103C600030B587B00446142102A8FCF7B4FC194D06
:103C700020681949022201240323A84213D10868AD
:103C800040F008000860086800F008000190500348
:103C90000290039204940593069202A90F48FEF73E
:103CA000F3FB07B030BD0E4DA842FAD1086840F0D2
:103CB00020000860086800F0200001904020029079
:103CC000039204940593069302A90648FEF7DCFBD1
:103CD000E7E700000008004030380240000C0240D6
:103CE0000044014000140240704770B504460D4680
:103CF000002694F83C0001280FD0012084F83C00F5
:103D00006AB1042A1FD0082A32D00C2A44D00126D6
:103D1000002084F83C00304670BD022070BD29466A
:103D2000206803F057FA2068816941F00801816139
:103D30002068816921F004018161206881692A6914
:103D400011438161E4E72946206803F077FA20688F
:103D5000816941F4006181612068816921F4806199
:103D60008161206881692A6941EA02218161CFE786
:103D70002946206803F09CFA2068C16941F00801D7
:103D8000C1612068C16921F00401C1612068C16975
:103D90002A691143C161BBE72946206803F0C0FAD4
:103DA0002068C16941F40061C1612068C16921F4E2
:103DB0008061C1612068C1692A6941EA0221C1614B
:103DC000A6E710B50446002C03D094F83D0010B1CE
:103DD00007E0012010BD002084F83C00204600F0E0
:103DE00015F8022084F83D00211D206803F064F9D5
:103DF00001203D3460726070A070E07020716071CD
:103E0000A071E07120722070002010BD70477047D3
:103E100010B50446002909D004290AD008290BD07E
:103E200094F8410001280AD0012010BD94F83E000A
:103E3000F8E794F83F00F5E794F84000F2E7022035
:103E4000A9B3042937D0082938D084F841000122C9
:103E5000206803F09FF91E4920681E4A884201D05D
:103E6000904203D1436C43F400434364206888428A
:103E700013D0B0F1804F10D0174988420DD01749A8
:103E800088420AD01649884207D0904205D0154989
:103E9000884202D01449884213D1816801F0070199
:103EA000062912D0016841F0010101600DE0FFE731
:103EB00084F83E00CBE784F83F00C8E784F8400070
:103EC000C5E7016841F001010160002010BD00005C
:103ED00000000140000401400004004000080040D0
:103EE000000C004000400140001800400068B0F1A4
:103EF000804F01D1FEF7CCBE7047704770477047C6
:103F0000F8B5044622681068D168536900F00F06BE
:103F1000002E08D1850606D58D0604D52046BDE8BD
:103F2000F84003F086BA0025002E66D003F00106A3
:103F300001F49077374360D0C20705D0CA0503D596
:103F4000626C42F001026264420705D5DA0703D0D1
:103F5000626C42F002026264820705D5DA0703D080
:103F6000626C42F004026264020707D501F020028D
:103F7000324303D0626C42F008026264626C002A31
:103F800031D0800604D5880602D5204603F051FAC8
:103F900020684069C0F38010616C090700D438B311
:103FA000204603F012FA2068406940061CD52068BC
:103FB000143050E8001F21F0400140E80012002AB0
:103FC000F5D1E06B60B159490165E06BFEF79FF8F0
:103FD000002808D0E06B016D01B0BDE8F040084753
:103FE0002046FFF78CFFF8BD2046FFF788FFF8BD9D
:103FF0002046FFF784FF6564F8BD236B012B7DD15C
:10400000C3067BD5CB067FD51068506800905069F9
:104010004FF0200340064FF0020644D5E16B0868DC
:10402000406880B20028E7D0A28D8242E4D9E085C2
:10403000C869B0F5807F2DD020680C3050E8001F93
:1040400021F4807140E80012002AF5D12068143074
:1040500050E8001F21F0010140E80012002AF5D1CC
:104060002068143050E8001F21F0400140E80012A1
:10407000002AF5D184F84230256320680C3050E8DE
:10408000001F21F0100140E80012002AF5D1E06B7A
:10409000FDF7F6FF6663A08DE18D401A81B22046E0
:1040A000FFF72CFFF8BDA08DE18D401A81B2E08DA5
:1040B0000028F7D00029F5D020680C3050E8002FF8
:1040C00022F4907240E80027002FF5D120681430C8
:1040D00050E8002F22F0010240E80027002FF5D120
:1040E00084F84230256320680C3050E8002F22F01D
:1040F000100240E80023002BF5D100E004E06663E5
:104100002046FFF7FBFEF8BD020606D50A0604D5D9
:104110002046BDE8F84003F07BBA4006F3D54806D8
:10412000F1D52046BDE8F84003F076B9BB7300082E
:1041300070B50446002C04D094F84100002510B15D
:1041400006E0012070BD84F84050204600F024F8BD
:10415000242084F841002068C16821F40051C16026
:10416000204603F0CBF92068016921F490410161F8
:104170002068416921F02A0141612068C16841F449
:104180000051C1606564202084F8410084F8420039
:104190006563002070BD00002DE9F04F87B0044634
:1041A000142102A8FCF717FA90488F4A14382368A4
:1041B0008E490227002506154FF003084FF0070A25
:1041C0004FF0400B4FF0006993426BD10A6842F008
:1041D00010020A60096801F010010191016841F0C4
:1041E00002010160016801F002010191016841F0E2
:1041F00001010160006800F0010001908020029040
:1042000003970495CDF81480CDF818A002A978483A
:10421000FEF73AF97010029003970495CDF81480D8
:10422000CDF818A002A97348FEF72EF9734F724813
:104230003860C7F80490C7F808B0FD603E617D6142
:10424000BD61FD614FF4403038627D623846FEF753
:1042500059F808B1FDF709FAA763BC636648674FD0
:10426000303860373860C7F80490BD60FD603E614B
:104270007D61BD61FD614FF4003038627D6238467A
:10428000FEF740F808B1FDF7F0F9E763BC630022E0
:1042900005212520FEF794FD2520FEF783FD07B0BC
:1042A000BDE8F08FDFF858C1012263453DD14F4989
:1042B000091F0B6843F480230B60096801F4802117
:1042C0000191016841F004010160006800F0040000
:1042D00001904FF44060029003970492CDF814804F
:1042E000CDF818A002A94748FEF7CEF8434F46483C
:1042F000C0373860C7F80490BD60FD603E617D61E5
:10430000BD61FD613D627D623846FDF7FBFF08B18E
:10431000FDF7ABF9E763BC63002205212720FEF718
:104320004FFD2720FEF73EFDB9E7DFF8E0C063450B
:10433000B5D10B6843F020030B60096801F0200140
:104340000191016841F040010160006800F0400007
:1043500001904FF48440029003970492CDF81480AA
:104360000820069002A92A48FEF78EF82248294F15
:10437000903838604FF02068C7F80480BD60FD6059
:104380003E617D61BD61FD614FF4003038627D6248
:104390003846FDF7B7FF08B1FDF767F9E763BC637F
:1043A00015481C4F183860373860C7F80480C7F8C4
:1043B00008B0FD603E617D61BD61FD614FF440303C
:1043C00038627D623846FDF79DFF08B1FDF74DF973
:1043D000A763BC63002205214720FEF7F1FC4720BC
:1043E000FEF7E0FC5BE700000010014044380240AB
:1043F0000004024000000240B8640240140C002097
:1044000000480040000802402860024000140140BB
:1044100000180240340D002070477047FEE7016825
:104420004A69D24352050FD46FF480624A61002179
:1044300040F8301F202242738173026942F0040267
:104440000261017301207047002070472DE9F84F89
:1044500004460B9E0F4690461D462068016841F4B5
:10446000806101602068016841F4807101600096FC
:104470004FF0011A0022514620460A9B00F014F921
:104480004FF4007940B120680068C00501D5C4F838
:1044900040900320BDE8F88F216807F0FE00086116
:1044A000DFF8E4B03346594620460A9A00F052F944
:1044B00008B10120EEE7206841698069009032462A
:1044C00020460A9900F0E5F948B1206C042804D18F
:1044D0002068016841F4007101600120DAE7284694
:1044E00008F0FF0501280DD021684FEA1820086167
:1044F000324620460A9900F0CCF968B1206C0428B5
:1045000003D007E02068056108E02068016841F4F5
:10451000007101600120BDE7206805613246204638
:104520000A9900F0B6F948B1206C042804D120683B
:10453000016841F4007101600120ABE72068016867
:1045400041F48071016000960022514620460A9B8A
:1045500000F0AAF838B120680068C00501D5C4F899
:104560004090032096E72168F8B240F0010008610E
:104570003346594620460A9A00F0ECF808B101206B
:1045800088E7002086E70000020001002DE9F843DB
:104590000446DDE908970D461646984620680168EE
:1045A00041F4807101604B4600224FF0011120461A
:1045B000009700F079F848B120680068C00502D57E
:1045C0004FF4007020640320BDE8F883216805F0F3
:1045D000FE0008613B464A461C49204600F0BAF8F6
:1045E00008B10120F0E720684169806900903A46EF
:1045F0004946204600F04DF948B1206C042804D10A
:104600002068016841F4007101600120DCE7F5B227
:10461000B8F1010F0CD02168300A08613A464946CA
:10462000204600F036F968B1206C042803D007E07A
:104630002068056108E02068016841F400710160AC
:104640000120C1E7206805610020BDE702000100EC
:1046500070B504460D4616461FE02046FFF7DFFE04
:1046600008B1012070BD681C17D0FEF705F8801B4B
:10467000A84200D88DB920684069C04340070CD5D6
:10468000002044F8300F20216173A073216941F0AC
:10469000200121612073012070BD20684069C04362
:1046A0004007DAD4002070BD2DE9F0470446DDF85C
:1046B00020900D4690461E46C5F307472FE0701C1C
:1046C0002DD0FDF7D9FFA0EB0900B04200D836BBD2
:1046D000012F17D02068806925EA00000004000C33
:1046E0001BD0002040451AD1002044F8300F202173
:1046F0006173A073216941F02001216120730120C1
:10470000BDE8F0872068406925EA00000004000C3D
:1047100001D00020E6E70120E4E70120E2E7012FD5
:104720000BD02068806925EA00000004000C0FD03F
:1047300000204045C3D00020E2E72068406925EA18
:1047400000000004000C01D00020F2E70120F0E797
:104750000120EEE72DE9F04704460D46164698463F
:104760004FF000094FF0200AC5F3074743E02068E7
:104770004069C043400517D42068016841F40071C6
:10478000016021686FF480604861C4F8309084F85B
:104790003DA084F83E90206C40F00400206484F832
:1047A0003C900120BDE8F087701C24D0FDF764FF29
:1047B000A0EB0800B04200D8EEB9012F14D0206859
:1047C000806925EA00000004000C14D0C4F8309081
:1047D00084F83DA084F83E90206C40F020002064D6
:1047E00084F83C900120DDE72068406925EA00005C
:1047F0000004000CEAD1012F08D02068806925EA66
:1048000000000004000CB2D10020CBE72068406912
:1048100025EA00000004000CF6D0A8E72DE9F041DD
:1048200004460D46164600274FF020082AE040694E
:10483000C043C0060FD421686FF0100048612763A1
:1048400084F83D8084F83E70206C206484F83C70CD
:104850000120BDE8F081FDF70FFF801BA84200D8C2
:1048600085B920684069C04340060BD544F8307FC5
:1048700084F80D80A773206940F020002061277321
:104880000120E6E720684169C9434906CFD40020EA
:10489000DFE770B504460D4616461FE02046FFF7D9
:1048A000BEFD08B1012070BD681C17D0FDF7E4FE05
:1048B000801BA84200D88DB920684069C04300061B
:1048C0000CD5002044F8300F20216173A0732169BA
:1048D00041F0200121612073012070BD20684069F2
:1048E000C0430006DAD4002070BD000008B50720E0
:1048F00004F030FA02E0642004F02CFAFCF796F998
:104900000028F8D102E0642004F024FA04F0A2F9AF
:104910000028F8D18C4AA2F11004101D9146211DE7
:104920008246FCF79BF92346A3F1400204F16C0791
:10493000A2F10C01A1F10C00009704F015F8DFEDD5
:10494000830A9FED830A834A002104F1880000F066
:104950004FFDA4F14002A2F10C0101F11800FBF798
:10496000D1FE002004F030FA05F0D6FE7A4DA861A1
:104970007A491020C8610846FEF754FD08B1FCF7DB
:1049800074FE754908222831A1F1080002F0ECF903
:10499000012028719FED720A6B4E143686ED050AD0
:1049A0009FED700A86ED060A9FED6F0A86ED070AF5
:1049B0004FF0FF384146012004F0BEFF0128F9D135
:1049C0002878400720D5287820F004002870624815
:1049D00051462930FCF7FAF894ED050AD6ED050AA0
:1049E00030EE600A84ED050A94ED060AD6ED060A5B
:1049F00030EE600A84ED060A94ED070AD6ED070A48
:104A000030EE600A84ED070A687840070AD56878B6
:104A100020F0040068704C4A211D1032A2F12A00D7
:104A2000FCF78AF8A87840070CD5A87820F0040095
:104A3000A870494849461E30FCF7ECF994ED040A89
:104A400004F08AF8404B0097103BA3F14002A2F11A
:104A50000C01A1F10C0003F087FF3B498039A1F163
:104A60000C0291ED000A82ED000A01F10C00D0ED7C
:104A7000000AC1ED000A9FED3D1ADFED3D1A00F17D
:104A8000180360EE810A9FED3B2A40EE210A93ED68
:104A9000000A40EE020AC0ED000A91ED010A82ED23
:104AA000010AD0ED010AC1ED010A60EE810A40EE73
:104AB000210A93ED010A40EE020AC0ED010A91EDD0
:104AC000020A82ED020AD0ED020AC1ED020A60EE8E
:104AD000810A40EE210A93ED020A40EE020AC0ED7F
:104AE000020A02460C3318319FED230A3030FBF7DF
:104AF00063FFDFF854B0ABF1340B0BF104035946FC
:104B00001A1DA1F1100003F0BBFEDBED000A9FEDC2
:104B10001B0A0BF10C0020EE801ADFED190AC1EE22
:104B2000201AC0ED001A9BED011A21EE001AC1EE09
:104B3000201AC0ED011A9BED021A21EE000A80EE48
:104B4000201A80ED021A35E778730020008089452D
:104B500000A08C45B0AF0008D00000200409002060
:104B600034BDC43AC0B252BBF01909BA5AF8F63F84
:104B70005D896EBFD5A9183B6F12833A000034439C
:104B8000DB0F494006494FF47A700860054D0C155B
:104B900021462846FDF760FD052005F0B3F8F7E74C
:104BA00034040040001C024010B50F480D4901605C
:104BB0000321416000218160C1604FF41022026135
:104BC0004FF400124261017641768176C176017719
:104BD0004177FCF7F5FF002803D0BDE81040FCF753
:104BE00044BD10BD006400406008002010B50F48AF
:104BF0000D4901600321416000218160C1604FF4D3
:104C0000102202614FF400124261017641768176F2
:104C1000C17601774177FCF7D3FF002803D0BDE8C8
:104C20001040FCF722BD10BD00680040880800203D
:104C300010B50749054808600846FDF7FBF900284C
:104C400003D0BDE81040FCF710BD10BD003002409D
:104C50001800002008B52548016841F48001016072
:104C6000016801F480010091016841F400110160C4
:104C7000006800F400100090002205210C20FEF7CF
:104C80009FF80C20FEF78EF8002205213920FEF750
:104C900097F83920FEF786F8002205213A20FEF722
:104CA0008FF83A20FEF77EF8002205213B20FEF720
:104CB00087F83B20FEF776F8002205214420FEF716
:104CC0007FF84420FEF76EF8002205214520FEF70C
:104CD00077F84520FEF766F8002205214620FEF70A
:104CE0006FF8BDE808404620FEF75CB83038024057
:104CF00010B5A4B01C221C491DA8FBF710FC002114
:104D00001DA804F034F8194C20601C2216491C31EF
:104D100016A8FBF704FC002116A804F028F8606030
:104D20001C22114938310FA8FBF7F9FB00210FA80D
:104D300004F01DF8A0601C220B49543108A8FBF7B1
:104D4000EEFB002108A804F012F8E0601C220649DE
:104D5000703101A8FBF7E3FB002101A804F007F87C
:104D6000206124B010BD0000A4AE000800000020A7
:104D70002DE9F04F87B0142102A8FBF72CFC002688
:104D80007A48016841F010010160016801F01001EA
:104D90000191016841F002010160016801F0020126
:104DA0000191016841F040010160016801F040019A
:104DB0000191016841F001010160016801F0010108
:104DC0000191016841F008010160016801F00801EA
:104DD0000191016841F004010160016801F00401E2
:104DE0000191016841F080010160016801F08001DA
:104DF0000191016841F020010160006800F020008D
:104E00000190DFF86CB1012240215846FDF72CFCDF
:104E10004FF4E058002241465648FDF725FC012298
:104E200010215548FDF720FC002240215248FDF793
:104E30001BFC012211465148FDF716FC032702977F
:104E400003960225049502A94D48FDF71DFB80201D
:104E500002900396049502A94A48FDF715FB4FF00E
:104E60004009CDF80890012403940494059502A903
:104E70005846FDF709FBCDF8088003940495059783
:104E800002A93C48FDF700FB4FF0090ACDF808A045
:104E90004FF40418CDF80C80049402A95846FDF78D
:104EA000F3FA600202900396049502A93148FDF7D7
:104EB000EBFA1020029003940494059502A92E4861
:104EC000FDF7E2FA30200290CDF80C80049402A99C
:104ED0002C48FDF7D9FA4FF4205002900395049422
:104EE0000597069402A92648FDF7CEFACDF808905A
:104EF000112003900496059602A91F48FDF7C4FAF5
:104F0000029403940494059502A91C48FDF7BCFA89
:104F1000B8030290039504940597CDF818A002A950
:104F20001648FDF7B1FA002205210620FDF748FFDB
:104F30000620FDF737FF002205210920FDF740FF7D
:104F40000920FDF72FFF002205210A20FDF738FF79
:104F50000A20FDF727FF002205211720FDF730FF6B
:104F60001720FDF71FFF07B0BDE8F08F3038024073
:104F700000180240001C02400000024000040240F1
:104F8000001002400008024010B50D480B490160B6
:104F90000C49416000218160C1604FF48042026190
:104FA00041618161C1610162FDF76CFB002803D0A2
:104FB000BDE81040FCF759BB10BD0000005C00408C
:104FC000B0080020801A060010B510480E49016094
:104FD0004FF48271416000218160C1600222026150
:104FE00001224261520282613822C2610162416241
:104FF00081620A21C162FEF715FA002803D0BDE8DC
:105000001040FCF732BB10BD003001400409002005
:1050100010B588B01C2101A8FBF7DDFA144813492C
:1050200001600024446084604FF6FF71C160046138
:105030008461FEF727FC08B1FCF717FB0C48FEF76C
:10504000C0FE08B1FCF711FB6020019002940394AC
:105050000594002201A90648FEF747FE08B1FCF7B7
:1050600004FB0348FEF7FCFD08B010BD00440140FE
:10507000F40A002010B586B000240294039404942E
:1050800005940094019414481249016042F2CF0142
:1050900041608460C721C16004618461FEF7F2FB56
:1050A00008B1FCF7E2FA4FF48050029002A90A48D6
:1050B000FEF7C4FC08B1FCF7D8FA009401946946E5
:1050C0000548FEF797FB002801D0FCF7CEFA06B0A2
:1050D00010BD0000000400401C0A002010B58EB076
:1050E00000240A940B940C940D94089409941C21A8
:1050F00001A8FBF770FA1E481C49016044608460F7
:1051000045F20721C16004618461FEF7BBFB08B171
:10511000FCF7ABFA4FF480500A900AA91448FEF746
:105120008DFC08B1FCF7A1FA1148FEF74AFE08B160
:10513000FCF79BFA0894099408A90D48FEF75AFB5E
:1051400008B1FCF792FA6020019002940394059450
:10515000082201A90648FEF7C8FD08B1FCF785FA48
:105160000348FEF77DFD0EB010BD000000080040B2
:10517000640A002010B586B00024029403940494BD
:1051800005940094019414481249016042F2CF0141
:10519000416084601321C16004618461FEF772FB89
:1051A00008B1FCF762FA4FF48050029002A90A4855
:1051B000FEF744FC08B1FCF758FA009401946946E4
:1051C0000548FEF717FB002801D0FCF74EFA06B0A1
:1051D00010BD0000000C0040AC0A002010B50C48C7
:1051E0000A4901604FF4E131416000218160C160F2
:1051F00001610C2242618161C161FEF799FF0028C3
:1052000003D0BDE81040FCF730BA10BD00100140DB
:105210003C0B002010B50C480A4901600B49416065
:1052200000218160C16001610C2242618161C16124
:10523000FEF77EFF002803D0BDE81040FCF715BA4A
:1052400010BD000000480040840B0020A086010033
:1052500010B50C480A4901604FF4E131416000216A
:105260008160C16001610C2242618161C161FEF710
:105270005FFF002803D0BDE81040FCF7F6B910BD71
:1052800000140140CC0B0020FEE7FEE7002814D0FC
:10529000D0ED101AC0ED111A90ED0F1A80ED101A12
:1052A000C0ED060A80ED070A30EEC00A80ED0F0A55
:1052B000017829B1012954D094E09FED4C0A704740
:1052C000D0ED010A60EE801AC0ED091AD0ED0A0A8D
:1052D00090ED022A42EE000AC0ED0A0A30EE410AC1
:1052E000B6EE001A90ED0D2A20EE010A02EE010A38
:1052F00080ED0C0A80ED0D0A90ED031A21EE001AE4
:1053000080ED0B1A90ED050AF4EEC00AF1EE10FAEA
:1053100002DD80ED0A0A08E0B1EE400AF4EEC00AB0
:10532000F1EE10FA01D280ED0A0A90ED0A0A31EE90
:10533000800A30EE010A80ED080AD0ED040AB4EECE
:10534000E00AF1EE10FA02DDC0ED080A4AE0F1EEE3
:10535000600AB4EEE00AF1EE10FA43D2C0ED080A9A
:1053600040E070EE410A90ED012A60EE820AC0ED45
:10537000090A90ED022A22EE002A80ED0A2AD0EDD9
:105380000D2AC0ED0E2AD0ED0C2AC0ED0D2AF0EE4C
:10539000002A01EE620A30EE210A80ED0C0A90ED3F
:1053A000031A21EE000A80ED0B0A70EE820A30EE3D
:1053B000800AD0ED080A30EE200A80ED080AD0ED10
:1053C000040AB4EEE00AF1EE10FA02DDC0ED080ABC
:1053D00008E0F1EE600AB4EEE00AF1EE10FA01D254
:1053E000C0ED080A90ED080A7047000000000000B8
:1053F000002828D0002A26D0017092ED001A80EDF6
:10540000011A92ED011A80ED021A92ED021A80ED56
:10541000031A80ED040AC0ED050A9FED0B0A80ED2A
:105420000E0A80ED0D0A80ED0C0A80ED080A80ED71
:105430000B0A80ED0A0A80ED090A80ED110A80ED61
:10544000100A80ED0F0A70470000000038B52D48A3
:1054500000680168890603D501684068009038BD7E
:1054600029490968C906FAD5016840680090274AA9
:1054700010680168264B09034FF0240420D401680A
:1054800021F00101016011684868C0F1240080B278
:1054900018804C6011680B6843F400230B6011689E
:1054A0000A6842F001020A601228D8D1194901F1B4
:1054B000160004F0B4F9BDE83840002003F0EAB863
:1054C000016821F00101016011684868C0F1240001
:1054D00080B218804C6010498B6A23F400238B62E1
:1054E00011680A6842F001020A601228B7D109491E
:1054F00001F13A0004F093F9BDE83840002003F0D0
:10550000C9B80000840B002000480040D40C0020E3
:10551000A4010020E4750020006002402DE9F74F4F
:1055200082B0F7490868026822F001020260F54A79
:105530001068036823F00103036003E0016821F0B1
:1055400001010160EE4800680168C907F6D103E077
:10555000016821F001010160EA4800680168C9079B
:10556000F6D1E948E94AEA4BC06C0190E74CE84DB6
:10557000E64EE74F0068DFF894B3DFF890C3E449E4
:10558000483A603318341835303E78374FF40068A5
:105590000CF1300C58454CD9884201D1202041E013
:1055A000904201D120203DE0984201D1202039E0F5
:1055B000A04201D1202035E0A84201D1404631E08F
:1055C000B04201D140462DE0B84201D1404629E029
:1055D000604501D1404625E0DFF8349309F13009F8
:1055E000484502D14FF400101CE0DFF82093A9F1E8
:1055F0001809484502D14FF4001013E0DFF810936A
:1056000009F19009484502D14FF400100AE0DFF893
:10561000FC9209F14809484502D14FF4001001E01D
:105620004FF00060DFF8E492A9F14C09C9F80000DE
:10563000F1E0DFF8DC9209F1A80948454CD988422D
:1056400001D1202041E0904201D120203DE098424C
:1056500001D1202039E0A04201D1202035E0A8422C
:1056600001D1404631E0B04201D140462DE0B84280
:1056700001D1404629E0604501D1404625E0DFF8F0
:10568000909209F13009484502D14FF400101CE016
:10569000DFF87892A9F11809484502D14FF40010BB
:1056A00013E0DFF86C9209F19009484502D14FF4FC
:1056B00000100AE0DFF8549209F14809484502D188
:1056C0004FF4001001E04FF00060DFF84092A9F1C4
:1056D0005009C9F800009EE0DFF8349209F148094A
:1056E00048454CD9884201D1202041E0904201D167
:1056F00020203DE0984201D1202039E0A04201D194
:10570000202035E0A84201D1404631E0B04201D12D
:1057100040462DE0B84201D1404629E0604501D124
:10572000404625E0DFF8E89109F13009484502D10B
:105730004FF400101CE0DFF8D491A9F11809484596
:1057400002D14FF4001013E0DFF8C49109F1900981
:10575000484502D14FF400100AE0DFF8B09109F19A
:105760004809484502D14FF4001001E04FF00060B5
:10577000DFF89C91A9F11009C9F80C004BE08842B0
:1057800001D1202041E0904201D120203DE098420B
:1057900001D1202039E0A04201D1202035E0A842EB
:1057A00001D1404631E0B04201D140462DE0B8423F
:1057B00001D1404629E0604501D1404625E0DFF8AF
:1057C000509109F13009484502D14FF400101CE016
:1057D000DFF83891A9F11809484502D14FF40010BB
:1057E00013E0DFF82C9109F19009484502D14FF4FC
:1057F00000100AE0DFF8149109F14809484502D188
:105800004FF4001001E04FF00060DFF80491A9F1BF
:105810001009C9F8080001984FF4806900685845DC
:105820004CD9884201D1102041E0904201D1102092
:105830003DE0984201D1102039E0A04201D1102072
:1058400035E0A84201D1484631E0B04201D1484696
:105850002DE0B84201D1484629E0604501D14846D3
:1058600025E0DFF8ACE00EF1300E704502D14FF4C8
:1058700080101CE0DFF894E0AEF1180E704502D104
:105880004FF4801013E0DFF888E00EF1900E7045C1
:1058900002D14FF480100AE0DFF870E00EF1480EFC
:1058A000704502D14FF4801001E04FF08060DFF8C6
:1058B0005CE0AEF14C0ECEF80000EFE0DFF850E017
:1058C0000EF1A80E704552D9884201D1102047E050
:1058D000904201D1102043E0984201D110203FE0D6
:1058E000A04201D110203BE0A84201D1484637E058
:1058F000B04201D1484633E0B8420BD148462FE0D0
:105900005C090020BC090020040900205864024002
:1059100010600240604501D1484621E0DFF8A4EC68
:10592000704502D14FF480101AE0DFF89CEC70450E
:1059300002D14FF4801013E0DFF888EC0EF1600E16
:10594000704502D14FF480100AE0DFF87CEC0EF1D4
:10595000600E704502D14FF4801001E04FF080607E
:10596000DFF864ECAEF1380ECEF8000096E0DFF818
:1059700054EC0EF1180E704548D9884201D1102020
:105980003DE0904201D1102039E0984201D1102031
:1059900035E0A04201D1102031E0A84201D14846B3
:1059A0002DE0B04201D1484629E0B84201D1484635
:1059B00025E0604501D1484621E0DFF808EC70455C
:1059C00002D14FF480101AE0DFF8FCEB704502D1F1
:1059D0004FF4801013E0DFF8ECEB0EF1600E704531
:1059E00002D14FF480100AE0DFF8DCEB0EF1600E1C
:1059F000704502D14FF4801001E04FF08060DFF875
:105A0000C4EBAEF1400ECEF80C0047E0884201D165
:105A100010203DE0904201D1102039E0984201D1A0
:105A2000102035E0A04201D1102031E0A84201D180
:105A300048462DE0B04201D1484629E0B84201D1A4
:105A4000484625E0604501D1484621E0DFF874EB87
:105A5000704502D14FF480101AE0DFF86CEB70450E
:105A600002D14FF4801013E0DFF858EB0EF1600E16
:105A7000704502D14FF480100AE0DFF84CEB0EF1D4
:105A8000600E704502D14FF4801001E04FF080604D
:105A9000DFF830EBAEF1400ECEF8080001984FF47D
:105AA000007A0068584548D9884201D108203DE075
:105AB000904201D1082039E0984201D1082035E018
:105AC000A04201D1082031E0A84201D150462DE08A
:105AD000B04201D1504629E0B84201D1504625E0FC
