:020000040800F2
:10000000D8FE002029030008B773000881610008AA
:10001000B5730008C30F000861C6000800000000A7
:10002000000000000000000000000000690200085D
:10003000A31D000800000000C5020008F59F00088D
:100040004303000843030008430300084303000878
:100050004303000843030008CD1F000843030008C2
:1000600043030008D31F0008D91F000843030008FA
:10007000C9170008430300084303000843030008AE
:10008000430300084303000843030008D10F00089E
:10009000C50F00084303000843030008DF1F0008E2
:1000A00043030008C5A000084303000843030008F9
:1000B000E1A00008430300084303000843030008CD
:1000C00043030008430300084303000843030008F8
:1000D0004303000855A700084303000861A7000870
:1000E00043030008430300084303000843030008D8
:1000F00043030008430300084303000843030008C8
:1001000043030008430300084303000843030008B7
:1001100043030008430300084303000843030008A7
:1001200043030008D5170008E1170008A11C0008C8
:100130004303000843030008430300084303000887
:100140002D1000084303000843030008F57500085C
:10015000AD1C0008B91C0008C51C000865A70008F4
:100160004303000843030008430300084303000857
:100170004303000843030008430300080000000095
:10018000430300084303000800F002F800F05CF8A5
:100190000AA090E8000C82448344AAF10107DA45E2
:1001A00001D100F051F8AFF2090EBAE80F0013F0D8
:1001B000010F18BFFB1A43F00103184798170100FD
:1001C000B81701000A444FF0000C10F8013B13F07F
:1001D000070408BF10F8014B1D1108BF10F8015BA0
:1001E000641E05D010F8016B641E01F8016BF9D193
:1001F00013F0080F1EBF10F8014BAD1C0C1B09D1EA
:100200006D1E58BF01F801CBFAD505E014F8016B5B
:1002100001F8016B6D1EF9D59142D6D370470000ED
:100220000023002400250026103A28BF78C1FBD8FF
:10023000520728BF30C148BF0B6070471FB510F090
:100240002CFC1FBD10B510BD00F003FA1146FFF7DE
:10025000F5FF0EF09BF900F021FA03B4FFF7F2FF6F
:1002600003BC00F025FA00002C4B19680868B0E8C0
:10027000F04F80F30988BFF36F8F4FF0000080F3D9
:10028000118870470000000008480068006880F38B
:1002900008884FF0000080F3148862B661B6BFF39F
:1002A0004F8FBFF36F8F00DF00BF00BF08ED00E08E
:1002B000DFF80C00016841F470010160704700BF75
:1002C00088ED00E0EFF30980BFF36F8F134B1A68DE
:1002D0001EF0100F08BF20ED108A20E9F04F1060CB
:1002E00009B44FF0500080F31188BFF34F8FBFF374
:1002F0006F8F0FF057FB4FF0000080F3118809BC9F
:1003000019680868B0E8F04F1EF0100F08BFB0EC95
:10031000108A80F30988BFF36F8F7047A000002018
:10032000EFF30580704700000948804709480047FF
:10033000FEE7FEE7FEE7FEE7FEE7FEE7FEE7FEE795
:10034000FEE7FEE704480549054A064B70470000F2
:10035000B5A0000889010008D8BE0020D8FE002002
:10036000D8DE0020D8DE002053EA020C00F06980BD
:100370002DE9F04B4FF00006002B1FBFB3FA83F5B9
:1003800003FA05F424FA05F65E4012BF1643B2FAEA
:1003900082F502FA05F4C5F120051EBF22FA05FC1C
:1003A00044EA0C04203556EA044C4FEA144418BFC2
:1003B000641C4FF000084FF00009904271EB030CF1
:1003C00039D3002919BFB1FA81F701FA07F6B0FA5B
:1003D00080F700FA07F6C7F120071EBF20FA07FCD6
:1003E00046EA0C062037B6FBF4FCA7EB0507103FE6
:1003F00007F01F0BCBF120060CFA0BFB2CFA06F6CC
:1004000044BFB3460026202FA4BF5E464FF0000B2A
:100410005BEA060C08BF4FF0010B19EB0B09ABFBB5
:10042000027C48EB0608C01B06FB02CC0BFB03CC8E
:1004300071EB0C01C1E70B46024641464846BDE858
:10044000F08B13B54FF000004FF00001AFF30080C8
:10045000BDE81C40704710B5431C02E010F8011BBA
:1004600071B18107FAD14FF0013202C88C1A8C4366
:1004700014EAC211F9D0C01A0A0603D0C01E10BD7A
:10048000C01A10BD0A0401D0801E10BD0902FCD0A4
:10049000401E10BD032A40F2308010F0030C00F023
:1004A000158011F8013BBCF1020F624498BF11F8AE
:1004B00001CB00F8013B38BF11F8013BA2F1040267
:1004C00098BF00F801CB38BF00F8013B11F00303DF
:1004D00000F02580083AC0F0088051F8043B083A43
:1004E00051F804CBA0E80810F5E7121D5CBF51F8E5
:1004F000043B40F8043BAFF30080D20724BF11F85F
:10050000013B11F801CB48BF11F8012B24BF00F8C3
:10051000013B00F801CB48BF00F8012B704710B534
:10052000203AC0F00B80B1E81850203AA0E81850EB
:10053000B1E81850A0E81850BFF4F5AF5FEA027CAC
:1005400024BFB1E81850A0E8185044BF18C918C01B
:10055000BDE810405FEA827C24BF51F8043B40F8BC
:10056000043B08BF7047D20728BF31F8023B48BFA1
:1005700011F8012B28BF20F8023B48BF00F8012BDF
:10058000704702F0FF0343EA032242EA024200F00E
:1005900002B84FF000020429C0F0128010F0030CE2
:1005A00000F01B80CCF1040CBCF1020F18BF00F866
:1005B000012BA8BF20F8022BA1EB0C0100F00DB815
:1005C0005FEAC17C24BF00F8012B00F8012B48BF73
:1005D00000F8012B70474FF0000200B51346944617
:1005E0009646203922BFA0E80C50A0E80C50B1F18B
:1005F0002001BFF4F7AF090728BFA0E80C5048BF9F
:100600000CC05DF804EB890028BF40F8042B08BF3C
:10061000704748BF20F8022B11F0804F18BF00F838
:10062000012B704770477047704710B500F00CF809
:10063000006810BD10B5044600F006F8046010BD57
:100640000048704778BE00200048704778BE002000
:1006500070477546FFF7F4FFAE46050069465346FE
:1006600020F00700854618B020B5FFF76BFEBDE807
:1006700020404FF000064FF000074FF000084FF009
:10068000000B21F00701AC46ACE8C009ACE8C0099A
:10069000ACE8C009ACE8C0098D46704710B5044607
:1006A000AFF300802046BDE81040FFF7D6BD000044
:1006B00001491820ABBEFEE7260002000BF0F4BF94
:1006C0000CF088B80CF074BCF0EE400AF5EEC00AED
:1006D000F1EE10FA02DDB0EE600A7047B1EE600A8A
:1006E000FBE70000002803D09FED020A80ED000A1E
:1006F0007047000000000000002803D0B3EE060A97
:1007000080ED000A7047000070B52DED0C8B84B0B1
:1007100006460C4615469FED990AF0EE408A9FED7D
:10072000970AB0EE409A9FED950AF0EE40BA9FED21
:10073000930AF0EE409A9FED910AB0EE40AA0EB1F6
:1007400004B11DB904B0BDEC0C8B70BD8C48FFF733
:10075000C9FF8C48FFF7D0FF8A48D0ED000A9FED13
:100760008A1A60EE810AB0EE600A00F025F9F0EE18
:10077000408A28EEA80AF0EE408A8248D0ED000AAE
:10078000B0EE001A60EE810A9FED7F1A60EE810ADA
:10079000B0EE600A00F010F9B0EE409A29EE090AB6
:1007A000B0EE409ADFED790AB7EE000A00EEA80A33
:1007B000DFED770A00EEC90ADFED760A20EE200AA7
:1007C000754880ED000A6E4890ED000ADFED730A6F
:1007D00080EE201AB7EE000A31EE000A20EE000A81
:1007E0006D48D0ED000A80EE801A6D4880ED001A49
:1007F00094ED000AB5EEC00AF1EE10FA0DD194EDB9
:10080000010AB5EEC00AF1EE10FA06D194ED020A23
:10081000B5EEC00AF1EE10FA46D09FED580AB0EEE0
:10082000408A0020019002900390D4ED000A60EE0F
:10083000A00A94ED011AD4ED011A41EE210A94EDBB
:10084000021AD4ED021A41EE210AB0EE600A00F05D
:10085000A9F8B0EE408A94ED000A20EE080A8DED6A
:10086000010A94ED010A20EE080A8DED020A94EDCA
:10087000020A20EE080A8DED030ADDED010AF1EE11
:10088000600AB0EE600AFFF719FFF0EE409A9DEDA6
:10089000031AF0EE410A9DED021AB0EE410AFFF78D
:1008A0000FFFB0EE40AA07E09FED340AF0EE409A49
:1008B0009FED320AB0EE40AA95ED000AB5EEC00AEF
:1008C000F1EE10FA0DD195ED010AB5EEC00AF1EE88
:1008D00010FA06D195ED020AB5EEC00AF1EE10FA53
:1008E0003CD0B0EE690A00F067F8B0EE408AB0EE96
:1008F000690AFFF7E7FEB0EE40DAB0EE4A0A00F010
:100900005BF8F0EE40AAB0EE4A0AFFF7DBFEB0EE6D
:1009100040BA28EE2A0AD5ED010A20EE200AD5EDCC
:10092000000A0DEE200A68EE0B0A95ED021A00EEA1
:10093000810AB0EE40CA95ED010A20EE0B0AD5ED12
:10094000020A0AEEE00AF0EE40CAF0EE6C0AB0EEDF
:100950004C0AFFF7B5FEF0EE40BA03E09FED070A40
:10096000F0EE40BAB0EE4A1AF0EE690AB0EE6B0A49
:1009700030460CF067FA00BFE4E60000000000001B
:10098000800300208403002035FA8E3CC1BFAD3BBC
:100990009DF8C5362F7C1C4188030020506CC24A4C
:1009A0008C03002010B50CF06BF8B7EE001AC1EE06
:1009B000000AB0EE600A10BD0CF03EBB2DE9F0411C
:1009C0002DED028B9AB00546B0EE408A0E461746D2
:1009D0009846002017901890199014901590169032
:1009E0004DB146B13FB1B8F1000F04D0B5EEC08AA9
:1009F000F1EE10FA05D100201AB0BDEC028BBDE873
:100A0000F08196ED000A8DED170A96ED010A8DED45
:100A1000180A96ED020A8DED190A97ED000A8DED80
:100A2000140A97ED010A8DED150A97ED020A8DED76
:100A3000160A17AA14A928460CF056F8402104A853
:100A4000FFF7C9FD00200090019002900390002460
:100A500017A904A80EF0BCFC00BF30E004A800EB0E
:100A6000041090ED000AD5ED000A20EE200A04A83B
:100A700000EB0410D0ED010A95ED011A00EE810A99
:100A800004A800EB0410D0ED020A95ED021A00EE66
:100A9000810A04A800EB0410D0ED030A95ED031AB7
:100AA00000EE810A20EE080AF0EE000A80EE201A1D
:100AB000684600EB840080ED001A601CC4B2042C70
:100AC000CCDB002410E005EB840090ED000A6846C2
:100AD00000EB8400D0ED000A30EE200A05EB840024
:100AE00080ED000A601CC4B2042CECDB28460EF03A
:100AF00027FB012080E70000FCB4069DADF8000054
:100B0000ADF80210ADF80420ADF80630524C6A463C
:100B1000072D20687ED2DFE805F004182E445A6FB6
:100B2000860000204D4D32F8101005EB40030E0AF0
:100B30001E765976401C0428F5DB606802B000235D
:100B4000F0BC1A4645490FF075B80020434D2035DA
:100B500005EB400332F810101976090A5976401C4B
:100B60000428F5DB606802B00023F0BC3B491A465C
:100B700020310FF05FB80020384D403532F81010AA
:100B800005EB40030E0A1E765976401C0428F5DB5F
:100B9000606802B00023F0BC30491A4640310FF0C3
:100BA00049B800202D4D603532F8101005EB400398
:100BB0000E0A1E765976401C0428F5DB606802B0E8
:100BC0000023F0BC25491A4660310FF033B80021EC
:100BD000224D803532F8113005EB41041E0A26768D
:100BE0006376491C0429F5DB02B00023F0BC1B49E5
:100BF0001A4680310FF01EB80021184DA03532F88A
:100C0000113005EB41041E0A26766376491C04293F
:100C1000F5DB00E01DE002B00023F0BC0F491A46EE
:100C2000A0310FF007B800200C4DC03505EB400394
:100C300032F810101976090A5976401C0428F5DBA1
:100C4000606802B00023F0BC04491A46C0310EF0BF
:100C5000F1BFFCBC704700000403002070B400200A
:100C600001221021014802F05DBE00000000024098
:100C700000221021014802F055BE00000000024091
:100C80007047000001221146014802F04BBE0000EF
:100C90000004024000220121014802F043BE00008E
:100CA0000004024030B5437804781B021BB2234392
:100CB00000EE103A1B4CB8EEC00AD4ED000A20EE4C
:100CC000200A81ED000AC37885781B021BB22B43F2
:100CD00000EE103AF8EEC00A94ED000A60EE800AC9
:100CE000C1ED010A437904791B021BB2234300EED4
:100CF000903AF8EEE00A20EE800A81ED020A017ACD
:100D0000C3790904807941EA0321014300EE101AF6
:100D1000DFED050AB8EE400A20EE200A82ED000A57
:100D200030BD00000C03002000401C4270470DF055
:100D3000ABBC0CF091BC000010B5427803781202F5
:100D400012B21A4300EE102A124BB8EEC00AD3EDCD
:100D5000010A20EE200A81ED000AC278847812028E
:100D600012B2224300EE102AF8EEC00A93ED010AF7
:100D700060EE800AC1ED010A42790079120212B2D6
:100D8000024300EE902AF8EEE00A20EE800A81EDA0
:100D9000020A10BD0C03002010B5FFF771FFFFF72A
:100DA000C5FF0CF019FA08B1802402E00CF086F9B6
:100DB00004460CF0D7FB10B144F0400010BD0CF01D
:100DC00063FB204310BD00002DE9FC4104460D46A5
:100DD0001646002000900190FFF74AFF922000F095
:100DE000BFF806226946122000F09CF8FFF738FF92
:100DF0009DF801009DF80010000200B2084300EECB
:100E0000100A474FB8EEC00AD7ED000A20EE200ABC
:100E100085ED000A9DF803009DF80210000200B263
:100E2000084300EE100AF8EEC00A97ED000A60EEE3
:100E3000800AC5ED010A9DF805009DF80410000226
:100E400000B2084300EE900AF8EEE00A20EE800AB5
:100E500085ED020AFFF71EFF08226946002000F018
:100E600061F8FFF70FFF9DF800000F2830D19DF8C3
:100E700003009DF80210000200B2084300EE100AC1
:100E8000D7ED010AB8EEC00A20EE200A84ED000A70
:100E90009DF805009DF80410000200B2084300EE22
:100EA000100AF8EEC00A97ED010A60EE800AC4ED60
:100EB000010A9DF807009DF80610000200B20843E1
:100EC00000EE900AF8EEE00A20EE800A84ED020AB5
:100ED000FFF7CEFEA22000F043F80222694622204E
:100EE00000F020F8FFF7BCFE9DF800009DF801100F
:100EF000C00040EA5110B0F5806F02DBA0F5006041
:100F000000B200EE100AB4EE001AF8EEC00AB3EE1A
:100F1000070A00EE810A86ED000ABDE8FC810000A8
:100F20000C03002070B50D46144640F0800000F020
:100F300017F806E0552000F013F805F8010B641EC1
:100F4000E4B2002CF6D170BD10B50C4640F0800024
:100F500000F006F8552000F003F8207010BD0000E6
:100F600001B582B04FF47A700090012301AA02A962
:100F7000024804F08BF99DF804000EBDDC0A002045
:100F800002784078D20042EA5010B0F5806F02DB60
:100F9000A0F5006000B200EE100AB4EE001AF8EE00
:100FA000C00AB3EE070A00EE810A81ED000A70471D
:100FB00010B50C46FFF7D4FF2046BDE81040FFF700
:100FC000CFBFFEE7014801F0C3BD0000380A002092
:100FD000014801F0BDBD0000380A002010B58AB0FC
:100FE0001048002202A900680EF036FF002816D033
:100FF00008AA01AB144602A90B4801F025FC002801
:101000000DD001AB224602A9074801F01DFC0028C3
:1010100005D001AB224602A9034801F015FC0AB035
:1010200010BD000004030020380A0020014801F030
:101030008FBD0000600A002010B58AB01048002261
:1010400002A900680EF008FF002816D008AA01AB1C
:10105000144602A90B4801F0F7FB00280DD001ABA4
:10106000224602A9074801F0EFFB002805D001AB9A
:10107000224602A9034801F0E7FB0AB010BD0000B8
:1010800008030020600A002004284FF00000704789
:101090000020704710B500220449054809F070FD92
:1010A0000449034809F05EFD002010BD02BD002088
:1010B000840F002002BC002010B504460988204699
:1010C00089B20AF081F82146034809F04BFD024835
:1010D00009F01CFD002010BD840F002010B506F0A3
:1010E00089FC002010BD000010B50A460849D1F85F
:1010F000BC12D1F81412002901D0012010BD014604
:10110000034809F03DFDBDE81040014809F0CEBD9F
:10111000840F002010B5FF22054C03E010F8013BBE
:101120005340E25C491E4B1CF8D1104610BD000034
:10113000C80C010830B505460C46002D01D0022C24
:1011400001D8002030BD611E2846FFF7E3FF2919B2
:1011500011F8011C884201D1012030BD002030BDB2
:1011600010B502464FF6FF70002A0CD0064C07E07F
:1011700012F8013B4340DBB234F8133083EA10200D
:10118000491E4B1CF4D110BDC80D010830B50546F1
:101190000C46002D01D0022C01D8002030BDA11E2C
:1011A0002846FFF7DDFF2919C2B211F8023C9A4226
:1011B00006D111F8011CB1EB102F01D1012030BD77
:1011C000002030BD10B5FF22054C03E010F8013BB4
:1011D0005340E25C491E89B2F8D2104610BD0000AF
:1011E000E60F01082DE9F04106460D461746002F8F
:1011F00003D0012F77D0022F72D12FB35C4C022D78
:1012000024D0012D22D0304606F0DEFA96ED080AF1
:10121000BDEEC00A10EE100AA08594ED010AD4EDCF
:10122000020AB4F92C0094ED0A1A70EE600A00EE7E
:10123000100AB8EEC00A01EE200ABDEEC00A10EE98
:10124000100AA08557B33AE04A4CD8E7304606F07A
:10125000BBFA022D1BD094ED060AD4ED080A30EE3D
:10126000600AD6ED080A94ED091A41EE000AC4EDB1
:10127000010A94ED000A04F1300006F0A5FA94ED9D
:10128000140ABDEEC00A10EE100AA085C5E794ED61
:10129000040AD4ED050A30EE600AE2E794ED030A91
:1012A00006F092FBB4F92C0000EE900AF8EEE00A8A
:1012B00030EE200ABDEEC00A10EE100AA085B4F987
:1012C0002C009FED2D1A00EE100ADFED2C0AB8EE6F
:1012D000C00A0DF04BF9BDEEC00A10EE100AA08551
:1012E000BDE8F081FFE7264C022D25D0012D23D04B
:1012F000304606F069FA96ED080A84ED100A94ED7E
:10130000120AD4ED130A94ED181A70EE600A94EDE7
:10131000100A01EE200AD4ED090A9FED1A1A00EE18
:10132000810A84ED100AB2EE061AFAEE060A0DF0F2
:101330001DF984ED100AD3E7304606F045FA94ED26
:10134000150AD4ED160A30EE600AD6ED080A94EDBF
:10135000171A41EE000AC4ED120A094894ED110A69
:10136000643006F031FA94ED210A84ED100AC6E7E4
:10137000B8B50020C0B6002000007A4600007AC64A
:10138000C8B700208FC2F53D014951F82000004741
:101390004002002000B58BB0012109910020079088
:1013A000089101900290039004900690059001A985
:1013B0000C4801F0BBFA0B4801F01FFF022109485D
:1013C00001F030FA0E200A90069001A9064801F0BB
:1013D000ADFA054801F011FF0221034801F022FA9D
:1013E0000BB000BD380A0020600A00202DE9F04F44
:1013F0002DED028B8FB03822414901A8FFF78FF8FD
:1014000000244FF0080BA24601AD55F83400C0F897
:1014100008A055F83400C0F80CA055F83400C0F806
:1014200010B005EBC40055F83420416811604068E5
:1014300001280DD055F83400C0F818A0C0F81CA041
:10144000641C072CE1D30FB0BDEC028BBDE8F08F1C
:101450009FED2E8A10209FED2B1ADFED2B0AB0EEA8
:10146000480A0CF0ADFA06460C209FED291ADFED74
:10147000290AB0EE480A0CF0A3FA07460C209FEDAB
:10148000261AF0EE480AB0EE480A0CF099FA8046A7
:101490000C20B1EE041AF0EE480AB0EE480A0CF047
:1014A0008FFA81460C20B2EE0E1AFAEE0E0AB0EE5A
:1014B000480A0CF085FA55F83420310A117655F8AF
:1014C00034104E7655F834203909917655F8342089
:1014D000390141EA1821D17655F8341081F81C8081
:1014E00055F834204FEA1911517755F834204FEA56
:1014F000091141EA1021917755F83410C8779FE718
:10150000900C0108DA0F4941DA0F49C100000000D0
:1015100000003442000034C20000FA4310B508480D
:10152000406800280BD10524012108460CF0AEF9D3
:1015300001200EF0C9F8641EE4B2002CF4D110BDF5
:10154000C8B7002010B50B4C012803D120700EF055
:10155000D9FEA0602078012809D10EF0D3FEA16841
:10156000401A40F2DC51884201D9002020702078D6
:1015700010BD00000C02002010B5134A134B144696
:10158000D16994ED010A994204DAB5EEC00AF1EE90
:1015900010FA07D30E4B99420EDDB5EEC00AF1EEFC
:1015A00010FA09DD022808D001280BD0002803D149
:1015B0009FED080A82ED010A10BD92ED030A82ED4B
:1015C000040A10BD916110BDC0B60020BE9F0C433F
:1015D00027293F430000000010EE100A0A49884204
:1015E0000FDD10EE100AB0F17E5F01DC0A207047BB
:1015F00010EE100AB0F1804F01DC14207047282053
:1016000070470020704700009A99993E10B50DF080
:1016100081FF0022202180200EF06EFA094C20600C
:101620000022202180200EF067FA60600DF092FF0A
:10163000206810B16068002803D1BDE8104000F0B8
:10164000D1BC10BD0403002038B50DF063FF1F4866
:1016500001220090002311461DA00EF0F9FF1F4C3F
:101660002060002540B10EF04DFE0246009500239B
:10167000012120680FF03AF81948012300901A461A
:10168000194618A00EF0E4FF606040B10EF03AFE7B
:10169000024600950023012160680FF027F81448E6
:1016A000012300901A46194612A00EF0D1FFA06047
:1016B00040B10EF027FE0246009500230121A068EC
:1016C0000FF014F8BDE838400DF044BFDD0F0008FE
:1016D00043414E315F54696D65720000BC010020CA
:1016E0003910000843414E325F54696D6572000045
:1016F0009F1D0008444D5F494D555F54696D6572EB
:1017000000000000F0B52DED048B81B0B0EE608AD2
:10171000F0EE418AB0EE619AF0EE429A10209FED11
:10172000241ADFED240A0CF04BF907460C209FED3C
:10173000221ADFED220AB0EE480A0CF041F9044605
:101740009FED208A0C209FED1E1AF0EE480AB0EEA5
:10175000680A0CF035F985B20C20B1EE041AF0EEEF
:10176000480AB0EE490A0CF02BF986B20C20B2EE12
:101770000E1AFAEE0E0AB0EE690A0CF021F92107F2
:10178000090E41EA1521220941EA02212A0242EA10
:10179000161240EA06300323009303B212B209B2D4
:1017A00038B2FFF7A9F901B0BDEC048BF0BD000021
:1017B000DA0F4941DA0F49C100003442000034C257
:1017C0000000FA4300000000014801F0C9BD00001C
:1017D000640E0020014801F0C3BD0000C40E0020CB
:1017E000AFF300802DE9F05FFA48FB4AFA4DC06C78
:1017F000FA4EF94F0068DFF8E4C3DFF8DC83DFF866
:10180000DC93DFF8D4A3DFF8D4B3DFF8CCE3F34CF8
:10181000483D60361837D1140CF1180CA8F1300887
:1018200009F178090AF1300A0BF1300BAEF1180E0C
:1018300090423ED9E84A543A1368A04201D120228E
:1018400035E0A84201D1202231E0B04201D120226E
:101850002DE0B84201D1202229E0604501D10A469D
:1018600025E0404501D10A4621E0484501D10A461C
:101870001DE0504501D10A4619E0584502D14FF408
:10188000001214E0704502D14FF400120FE0D34A69
:101890009032904202D14FF4001208E0CE4A483212
:1018A000904202D14FF4001201E04FF00062134069
:1018B000C3E0CA4AA83290423ED9C74A583A136890
:1018C000A04201D1202235E0A84201D1202231E0FE
:1018D000B04201D120222DE0B84201D1202229E0DE
:1018E000604501D10A4625E0404501D10A4621E084
:1018F000484501D10A461DE0504501D10A4619E08C
:10190000584502D14FF4001214E0704502D14FF453
:1019100000120FE0B14A9032904202D14FF400120F
:1019200008E0AD4A4832904202D14FF4001201E083
:101930004FF00062134080E0A84A483290423ED9FE
:10194000A64A103A5368A04201D1202235E0A842AD
:1019500001D1202231E0B04201D120222DE0B84255
:1019600001D1202229E0604501D10A4625E0404509
:1019700001D10A4621E0484501D10A461DE0504503
:1019800001D10A4619E0584502D14FF4001214E083
:10199000704502D14FF400120FE0904A903290420D
:1019A00002D14FF4001208E08B4A4832904202D133
:1019B0004FF4001201E04FF0006213403DE0874A0F
:1019C000103A1368A04201D1202235E0A84201D18B
:1019D000202231E0B04201D120222DE0B84201D1D5
:1019E000202229E0604501D10A4625E0404501D189
:1019F0000A4621E0484501D10A461DE0504501D183
:101A00000A4619E0584502D14FF4001214E070451F
:101A100002D14FF400120FE0704A9032904202D18E
:101A20004FF4001208E06C4A4832904202D14FF461
:101A3000001201E04FF000621340002B72D0664AA2
:101A4000904235D9A04201D120212DE0A84201D1F8
:101A5000202129E0B04201D1202125E0B84201D166
:101A6000202121E060451FD040451DD048451BD0B6
:101A7000504519D0584502D14FF4001114E070457B
:101A800002D14FF400110FE054499031884202D145
:101A90004FF4001108E050494831884202D14FF418
:101AA000001101E04FF000614B484C380160ADE09F
:101AB0004A4AA832904236D9A04201D120212DE0D5
:101AC000A84201D1202129E0B04201D1202125E006
:101AD000B84201D1202121E060451FD040451DD0F2
:101AE00048451BD0504519D0584502D14FF400113C
:101AF00014E0704502D14FF400110FE037499031E6
:101B0000884202D14FF4001108E03349483188423D
:101B100002D14FF4001101E04FF000612E4850381F
:101B2000016073E0AEE02D4A4832904235D9A042C0
:101B300001D120212DE0A84201D1202129E0B0428D
:101B400001D1202125E0B84201D1202121E06045CA
:101B50001FD040451DD048451BD0504519D0584591
:101B600002D14FF4001114E0704502D14FF400117E
:101B70000FE01A499031884202D14FF4001108E079
:101B800015494831884202D14FF4001101E04FF06D
:101B9000006112481038C16038E0A04201D1202114
:101BA00031E0A84201D120212DE0B04201D1202115
:101BB00029E0B84201D1202125E0604523D04045ED
:101BC00021D048451FD050451DD0584508D14FF46D
:101BD000001118E0DC0A0020586402401060024046
:101BE000704502D14FF400110DE02749884202D11F
:101BF0004FF4001107E02549884202D14FF400114B
:101C000001E04FF000612048A0388160204C20782E
:101C100080070CD5207820F002002070207840F05A
:101C200004002070012211461A4801F07BFE607802
:101C3000194D80070CD5607820F002006070607844
:101C400040F00400607001221021284601F06AFE75
:101C5000A07880070CD5A07820F00200A070A078B2
:101C600040F00400A07001221021284601F05AFE25
:101C70000CF0F8FA2078400704D50848016841F0D4
:101C800001010160BDE8F09FA0600240A064024035
:101C9000540200200004024000000240103C0140B9
:101CA000014801F05DBB0000940B0020014801F0E9
:101CB00057BB0000040E0020014801F051BB00009A
:101CC000240F0020014801F04BBB0000A40D0020B0
:101CD0000168CAB2103A1823B2FBF3F2064B9B5CC0
:101CE000C3656FF30901032A02D9091D816500E06C
:101CF0008165806D70470000740B010810B50146C6
:101D000000208A6A8B694FF0C074002B0ED0B3F5A7
:101D1000005F1AD062B3012A2AD0022A28D0032AEF
:101D200003D1C96AC90100D5012010BD1AB1012A29
:101D300006D0022AF9D1C96AC901F6D5012010BD21
:101D4000C96AA142FBD1012010BD52B1012A0AD0BB
:101D5000022A06D0032AF7D1C96AA142F4D1012090
:101D600010BD012010BDC96AC901FBD5012010BDFD
:101D7000012010BD30B50468256825F48025256054
:101D8000046863608368402B04D00368996000682E
:101D9000C26030BD03689A600068C16030BD0CF05D
:101DA000EFBA70472DE9F05F4C4C4D4D4FF00108F4
:101DB00094F90000502801DD85F80380E9784FF0A0
:101DC000000A19B13C2801DA85F803A04548C07A19
:101DD000022809D000200DF0A7FA28B9E87818B930
:101DE0004148007B400701D4012000E000203B4E29
:101DF00006F18C0B443648B1A4F814A0304605F027
:101E000095FD5846BDE8F05F05F090BD344F287B46
:101E10004FF49679243F78B10EF074FAF988401A9D
:101E2000484541D985F80CA0C7F820A0304605F0F8
:101E30007DFD584605F07AFDB4F91410002900DA4A
:101E40004942D4ED120A9FED291A00EE101A60EEF5
:101E5000810A9FED271AB8EEC00A60EE810AB4EE3F
:101E6000E00AF1EE10FA25DD94ED010A0CF0F8FB22
:101E700010EE100A1F4988421CDA02200DF054FAB5
:101E8000C0B96878B0B1386A401C3862484511D989
:101E900085F80C800EF036FAF880B4F914000028AA
:101EA00004DA4FF49660A082BDE8F09F4FF6503000
:101EB000A082F9E70948083000F01EF8D4ED020AC4
:101EC00094ED010A304605F07FFC94ED190ABDEE51
:101ED000C00A10EE100AA082E6E700003CBA00201B
:101EE000FC01002010BB002089BB00209A99593FBB
:101EF00000007A440000A04170B52D492C4A9FEDA6
:101F00002D0AC97A2C4D927A2C4B01290CD0D5F888
:101F1000054000EE904AF5EEC00AF1EE10FA03D14A
:101F2000032922D1012A20D1254C267B76071CD5F6
:101F3000248993ED021A0A3C00EE904AF8EEE00A7A
:101F4000B4EEE01AF1EE10FA01DB01241C701C78EB
:101F50005CB1D988491C89B2D980FA2902D3002101
:101F6000D980197080ED000A70BD012A01D10329C2
:101F700003D00022012902D00CE00122FAE7697C9B
:101F8000012907D10F4904240978B4EB111F01D1AD
:101F9000012100E000215B7833B10A4304D09FEDBA
:101FA0000A0A80ED000A70BD80ED000A70BD0000D5
:101FB00010BB00200000000030BE0020FC0100200B
:101FC00089BB00206EBB002000007A44012001F094
:101FD000ADBB082001F0AABB102001F0A7BB202058
:101FE00001F0A4BB72B6FEE770B52DED048BB0EE28
:101FF000408AB0EE609A104D104C6E420DE0F5EE46
:10200000C08AF1EE10FA01DD284600E0304600EE0D
:10201000100AB8EEC00A30EE088A38EE490AF0EE2F
:10202000408A0CF01DFB10EE100AA042E7DCB0EE77
:10203000480ABDEC048B70BD98FEFFFF9A1934432B
:1020400070B5234D234CA878002803D000200DF054
:102050006BF968B39FED200A84ED010A84ED160A3E
:10206000B4F90000D4ED010A00EE100A1948B8EEE8
:10207000C00A0C3005F0A8FBB4F95400D4ED160AE0
:1020800000EE100A1348B8EEC00A603005F09CFB61
:1020900094ED0B0ABDEEC00A10EE100A208194EDFB
:1020A000200ABDEEC00A10EE100AA4F85C0070BD54
:1020B000B5F90400414200EE101AB8EEC00A84EDF2
:1020C000010A00EE100AB8EEC00A84ED160AC7E74E
:1020D000FC01002094B900200000000070B52DED37
:1020E000028B274C2078002846D02648007B4007EA
:1020F00042D52548D4ED030AD0F8030000EE100ABB
:1021000030EE200A84ED030A6078401CC0B2607093
:10211000032831D300EE900AB8EE601AC0EE010A2F
:10212000B3EE070A30EE608AB0EE480A0CF098FA77
:10213000FFF752FA0646B0EE480A0CF09BFA04F19B
:102140002405B5F9041000FB061000B2A88000EECB
:10215000100A9FED0E1ADFED0E0AB8EEC00A0CF061
:1021600005FABDEEC00A10EE100AA8809FED090A1C
:1021700084ED030A00206070BDEC028B70BD00008E
:10218000D801002089BB00206503002000C0DA458B
:1021900000409C450000000010B50C490A4AB1F906
:1021A0000400B2F90030C0F59674A34208DAB2F91F
:1021B0005420A0F59670824202DD0120487010BDC7
:1021C0000020487010BD000094B90020FC010020E0
:1021D0000B49C87A012804D0032808D1887A02283C
:1021E00005D00848007B400701D5012000E0002011
:1021F000054910B101208870704700208870704731
:1022000010BB002089BB0020FC01002070B52DED23
:10221000048B6448B0F90A0000EE100AB8EEC00A58
:10222000B1EE400A9FED609A604E614C71880029C2
:1022300001D0A08840B10020A1800025DFED5D9A8B
:10224000F2EE048A30B901E00120F5E75849243163
:102250000A7B22B1A57058B1C4ED049A08E0A078B9
:1022600058B101281CD002282DD003283CD0A570DD
:102270000EF048F8E16971B33FE048780028F7D0E4
:1022800010EE100A4C498842F2DA10EE100A4B495F
:102290008842EDDD0120A0700EF034F86061E7E7C0
:1022A00010EE100A4549C94301444548814208D20D
:1022B0000EF028F86169401A0528D9D90220A070CB
:1022C000D6E7A570D4E710EE100A3E49884203DA3B
:1022D0000320A070CCE70FE00EF014F86169401AFB
:1022E0003228C5D9A570C3E794ED040A30EE280A58
:1022F00084ED040AA570BBE7E061E169411A00EED4
:10230000101AB8EE400A80EE098AE0612E48D4ED3A
:10231000040A408900EE100AB8EE400A30EEC00A06
:10232000B5EEC00AF1EE10FA05D200EE100AB8EED2
:10233000400A84ED040A00EE100AD4ED040A234991
:10234000B8EE400A30EEC00A10EE100A884202DAF7
:102350000DF0D8FFA0610DF0D5FFA169401AC82883
:1023600008D994ED040A30EE680A84ED040A0DF0F1
:10237000C9FFA061F08800EE100AF8EE400A94ED63
:10238000040A00EEC80A84ED040AB5EEC00AF1EEB4
:1023900010FA01D2B0EE690A84ED040ABDEC048B98
:1023A00070BD000094B9002000007A4489BB002071
:1023B000D80100200000000000E0AB450080BB44D5
:1023C000FF5FF00000007A4496BB00200000A041AF
:1023D00010B50B480168001D0468001D0068084422
:1023E00000280BD00822074904F0F0FB05492046DD
:1023F0000422BDE81040103104F0E8BB10BD00001D
:10240000107AFF1F6200002070B52DED028B454C45
:1024100094ED040A84ED050A94ED060A84ED080A99
:1024200094ED010A84ED020A3F4D95ED070A9FEDF8
:102430003F8A20EE080A0AF0BBFDD5ED020A60EEE5
:10244000208A95ED070A20EE080A0AF0F5FDD5ED81
:10245000000A9FED372A40EE608A28EE820A84ED5A
:10246000000A95ED080A84ED030A32489FED321AFE
:10247000008800EE900AF8EE600A60EE810AC4ED72
:10248000070AF6EE001A2D48D0ED152AC0ED162ADF
:10249000D0ED122AC0ED132A2949D1ED072A22EEE8
:1024A000822A80ED112A9FED272A72EE600A30EE13
:1024B000200A80ED140A90ED080A90ED0A2A60EED9
:1024C000210A42EE210AC0ED090A80ED0A0A1E48DF
:1024D00090ED040A80ED050A90ED060A80ED080AE9
:1024E00090ED010A80ED020A95ED010ADFED170A71
:1024F00020EE200A80ED000A95ED070AB1EE400AB1
:1025000080ED030A1249098800EE101AB8EE400A5D
:1025100020EE010A80ED070A0E4801784170BDECFB
:10252000028B70BDB8B50020D8B3002095568D3C05
:10253000E12E654290B50020ACFF333DC8B70020C6
:1025400050B5002062088443C0B60020E12E65C269
:102550009AB500202C0200202DE9F0412748284A96
:10256000C07A012802D15178012914D00024D2F870
:10257000051000EE101AB5EEC00AF1EE10FA08D1FF
:10258000D2F80D1000EE101AB5EEC00AF1EE10FAF6
:1025900003D0012502E00124E9E7002503280AD041
:1025A0000026012809D00027022814D000200CF0B2
:1025B000BBFE80B903E00126F3E70127F4E7012021
:1025C0000CF0B2FE38B904200CF0AEFE18B90320AE
:1025D0000CF0AAFE00B1012010B10420BDE8F0818A
:1025E0000CB10020FAE70DB10120F7E70FB103208D
:1025F000F4E70EB10220F1E70420EFE710BB002062
:1026000030BE002010B52DED068BDFED4D0AB2EE89
:10261000060A4C4A00214C4805F0A8F9F1EE040ADC
:102620009FED4A0A474A48480C320021483005F0DD
:102630009DF9F2EE040A9FED460A424A42481832DA
:102640000021903005F092F99FED429AF0EE490A90
:102650009FED410A3B4A3C4824320021D83005F026
:1026600085F9384AF2EE040A9FED3C0A3032002127
:102670003B4805F07BF93448F1EE048A6438C0ED3C
:10268000178A9FED380A80ED180ADFED389A2D4A37
:10269000DFED350AB0EE690A3C320021344805F01E
:1026A00065F99FED34AADFED34AA264A3048F0EEF2
:1026B0004A0AB0EE6A0A48320021483005F056F95D
:1026C0009FED2E8A1F4A2A48F0EE480AB0EE6A0AA9
:1026D00054320021903005F049F92548B3EE041A30
:1026E000303880ED091A80ED0A8A164AF0EE4A0A5F
:1026F000B0EE690A60320021214805F037F9114A2D
:102700001F48F0EE490AB0EE6A0A6C3200214830E8
:1027100005F02CF90B4A1A48F0EE490AB0EE6A0AA5
:1027200078320021903005F021F915483038C0ED9D
:10273000098AB2EE040A80ED0A0ABDEC068B10BDD0
:102740009A99193EDC0B01082CB8002000001643B2
:1027500000009644000000000000F0420080BB44EE
:102760004CB900200AD7A33D00803B4500007A46C3
:10277000E8B500200000C8420000FA4400008C4286
:10278000F0B600202DED028B82B020484FF0FF31D3
:1027900000680DF0FFFB012801D0FFF723FCFFF7D5
:1027A00031FF1B4D1B4E9FED1C8A0427DFF86C8008
:1027B000DFF86C90A5F12004FEF7B0FEFFF724FED1
:1027C000FFF7CAFE2870FEF7DFFDB0EE480A96ED6F
:1027D000102AF0EE401AB0EE401AF0EE400AFEF772
:1027E00091FF00970023B8F92C10B9F92C001A4674
:1027F000FEF782F96079782805D0401C60710220CC
:102800000CF062FFD8E701206071F8E700000020BB
:102810002C020020C8B7002000000000C0B6002035
:10282000B8B5002090F82020012A07D0022A05D050
:10283000416A41F480214162012070470068426989
:102840000A43426100207047F0B590F820500468B8
:10285000A468012D07D0022D05D0416A41F48021E2
:1028600041620120F0BD04F0806504F0006635434C
:1028700001D1E50053D5C4F301640125A5401D60D5
:102880008B684FF4C0759BB1CE6805EB04173343DA
:102890004E6843EAC6030668F3514FF4C2730768F3
:1028A00003EB04130E69FE50097D012909D00DE0E8
:1028B0000E88CB6805EB041743EA46530668F351CC
:1028C000EBE70168CE5846F48076CE501179D37983
:1028D000567941EA036193791B0443EA06231943BD
:1028E0004FF4C676036806EB041699511178D37835
:1028F00041EA0361937852781B0443EA02221143B0
:102900004FF4C473026803EB0413D150006805EB65
:102910000411425842F0010242500020F0BD416AC9
:1029200041F4001141620120F0BD000010B590F8A3
:102930002020012A07D0022A05D0416A41F48021D3
:102940004162012010BD3C4800F50070026842F071
:1029500001020260026822F47C52026002684B6A43
:1029600042EA032202600A7D02F01F0301229A401C
:10297000C3699343C361A0F50070CB69B3B9D0F8C4
:102980000C329343C0F80C328C894B6864F31F43BC
:102990004C6900EBC404C4F840320C890B6864F342
:1029A0001F434C6900EBC404C4F84432CB69012BCB
:1029B00016D1D0F80C321343C0F80C320C884B6897
:1029C00064F31F434C6900EBC404C4F840320C8923
:1029D000CB6864F31F434C6900EBC404C4F8443271
:1029E0008B697BB1D0F804321343C0F804320B6911
:1029F00073B1D0F814321343C0F81432096A0129B4
:102A00000CD010E0D0F804329343C0F80432EEE763
:102A1000D0F814329343C0F81432EFE7D0F81C1208
:102A20001143C0F81C12D0F8001221F00101C0F8C7
:102A30000012002010BD000000640040704770B517
:102A400090F82040012C07D0022C05D0416A41F4B7
:102A500080214162012070BD21B104682469A4076E
:102A60002AD003E00468E468A4071FD04FF4D874A8
:102A7000056804EB01142D5905F0040595600DB3AC
:102A800005682D59ED08556005682C5904F00204BD
:102A9000D4604FF4DA74056804EB01142E5906F083
:102AA0000F06082E13D30825156114E0416A41F47E
:102AB00000114162012070BD416A41F40011416280
:102AC000012070BD05682D596D0D1560DCE72D598D
:102AD00005F00F05156105682D59C5F307259561AA
:102AE00005682C59240C54614FF4DC72046802EB25
:102AF0000112A4581C700468A458240A5C7004686D
:102B0000A458240C9C700468A258120EDA704FF47A
:102B1000DE72046802EB0112A4581C710468A45808
:102B2000240A5C710468A458240C9C710468A2589F
:102B3000120EDA7131B10068016941F020010161C2
:102B4000002070BD0068C16841F02001C160F7E756
:102B50002DE9F05F0546002428684669D0F8049006
:102B60008768D0F80CA0D0F810B0D0F81880F10722
:102B700048D0F90714D001218160B80703D5284651
:102B800000F068FB0CE0780702D54FF4006407E022
:102B9000380702D54FF4805402E0284600F059FB74
:102BA000F80516D529684FF480708860B80503D5FC
:102BB000284600F051FB0CE0780502D544F400549F
:102BC00007E0380502D544F4804402E0284600F0CE
:102BD00042FBF80316D529684FF480308860B803AB
:102BE00003D5284600F03AFB0CE0780302D544F404
:102BF000004407E0380302D544F4803402E028465C
:102C000000F02BFB300707D55FEACA6004D544F417
:102C1000007429681020C86070074FF0080707D5B6
:102C20005FEA0A7004D52868C760284600F0C0F93A
:102C3000B00706D52868C068800702D0284600F093
:102C4000B9F9700607D55FEACB6004D544F4806417
:102C5000296810200861B00607D55FEA0B7004D51B
:102C600028680761284600F0C5FAF00606D52868EE
:102C70000069800702D0284600F0BDFAB00308D5ED
:102C80005FEAC96005D5296810204860284600F031
:102C9000B3FAF00307D55FEA097004D528684760E6
:102CA000284600F0DCFA300446D55FEA497040D58A
:102CB000F00504D55FEAC87001D044F00104B00506
:102CC00004D55FEA887001D544F00204700504D58C
:102CD0005FEA487001D544F00404300529D518F0A6
:102CE000700F26D008F07000402815D006DC1028A0
:102CF00009D020280AD0302816D10AE050280ED05A
:102D0000602811D10EE044F008040DE044F01004F6
:102D10000AE044F0200407E044F0400404E044F0FA
:102D2000800401E044F480742868816921F0700116
:102D30008161296804204860002C05D0686A20431E
:102D400068622846FFF77AFEBDE8F09F70B504463A
:102D5000002C03D094F8200010B104E0012070BDD5
:102D6000204600F09DF82068016841F001010160F3
:102D700000F0E0FD054605260CE000F0DBFD401B01
:102D80000A2807D9606A40F40030606284F8206045
:102D9000012070BD20684068C007EED0206801683F
:102DA00021F00201016000F0C5FD05460CE000F0D5
:102DB000C1FD401B0A2807D9606A40F400306062F8
:102DC00084F82060012070BD206840688007EED440
:102DD000207E01283FD02068016821F08001016039
:102DE000607E01283DD02068016821F0400101602B
:102DF000A07E01283BD02068016821F020010160FD
:102E0000E07E012839D02068016841F0100101609E
:102E1000207F012837D02068016821F00801016077
:102E2000607F012835D02068016821F0040101602D
:102E3000D4E902010843D4E904121143084361684C
:102E4000491E08432168C86100206062012084F89F
:102E50002000002070BD2068016841F08001016001
:102E6000BEE72068016841F040010160C0E72068CA
:102E7000016841F020010160C2E72068016821F08B
:102E800010010160C4E72068016841F00801016099
:102E9000C6E72068016841F004010160C8E700004E
:102EA0002DE9F04186B00446142101A8FDF793FBFB
:102EB0003A4B3B4ADFF8E08018682168384C03261B
:102EC0000227401C103200254FF0090C41452FD13C
:102ED0001860012807D1106840F000701060106879
:102EE00000F000700090206840F00800206020682A
:102EF00000F0080000900196029703950496CDF823
:102F000014C001A9274800F01DFC00220521132050
:102F100001F0B4F8132001F0A3F8002205211420D9
:102F200001F0ACF8142001F09BF806B0BDE8F08188
:102F3000DFF874804145F8D1116841F0806111607B
:102F4000116801F0806100911860012807D11068B4
:102F500040F000701060106800F000700090206871
:102F600040F002002060206800F002000090602025
:102F70000190029703950496CDF814C001A90B485F
:102F800000F0E0FB00220521402001F077F840200E
:102F900001F066F8C9E7000000640040200000204E
:102FA00030380240000C024000680040000402403B
:102FB000704700007CB504468048814D84426DD145
:102FC0006B462A4600212046FFF739FD296808464E
:102FD000A1F50071013906D0012904D0042926D0B9
:102FE00005295BD13FE0401EC0B200EB800275486E
:102FF00000EB420130F812300B819DF801309DF852
:10300000006043EA062320F812309DF803009DF883
:10301000022040EA022048809DF805009DF8042027
:1030200040EA022088809DF80600887136E06649F3
:10303000088808819DF801009DF8002040EA0220E0
:1030400008809DF803009DF8022040EA0220488095
:103050009DF805009DF8042040EA022088809DF834
:10306000060088711AE05949088808819DF8010016
:103070009DF8002040EA022008809DF803009DF89A
:10308000022040EA022048809DF805009DF80420B7
:1030900040EA022088809DF8060088714C488442EE
:1030A00066D16B46464A00212046FFF7C8FC2868D7
:1030B00016285ED0A0F58070413861D0A0F58070F0
:1030C000BF3855D19DF80000424C00F00F0121603F
:1030D000000960609DF802009DF8011040EA01209F
:1030E000A0609DF803100A019DF8041042EA111235
:1030F000E2609DF8052001F00F0142EA0121216103
:103100001021DFED350A9FED350A0CF019F910EEAC
:10311000100A0DF051FC9FED321B53EC112B0DF0FA
:103120004DFB0DF019FBE0610C21DFED2F0A9FED47
:103130002F0AE0680CF004F984ED080A0C21F2EE85
:103140000E0ABAEE0E0A20690CF0FAF884ED0B0AAA
:103150009DF8060000EE100AB8EE400A84ED0E0A53
:103160009DF8070000EE100AB8EE400A84ED0F0A41
:103170007CBD684603F0DEFA01200AF089FA7CBDC6
:103180001B489DF8011001709DF802109DF8032066
:1031900041EA022141809DF804109DF8052041EA92
:1031A000022181809DF806109DF8072041EA022146
:1031B000C18002200AF06CFA7CBD0000380A0020B1
:1031C00054B40020A4B5002090B500209AB500208A
:1031D000600A0020C8B70020DA0F4941DA0F49C160
:1031E0000734226294A94C4000003442000034C2EB
:1031F0003803002070477047704770B5044694F854
:103200002000012805D0606A40F40020606201209F
:1032100070BD022084F820002068016821F00101BF
:10322000016000F087FB05460DE000F083FB401BCA
:103230000A2808D9606A40F400306062052084F8EA
:103240002000012070BD20684068C007EDD1606299
:1032500070BD704770477047704770477047704740
:1032600010B50446002C02D0607910B106E00120B0
:1032700010BD00202071204600F004F8012060718C
:10328000002010BD08B500680649884208D10648EC
:10329000016841F480510160006800F480500090A2
:1032A00008BD000000300240303802402DE9F041F6
:1032B0000446A76D00F03EFB054694F83500002655
:1032C000022806D08020606584F834600120BDE8C3
:1032D000F0812068016821F01601016020684169D1
:1032E00021F080014161206C08B9A06C20B12068F8
:1032F000016821F0080101602068016821F00101E6
:1033000001600BE000F016FB401B052806D92020C9
:1033100034342062032060702670D8E7206800688B
:10332000C007EFD134343F2094F828108840B860AB
:103330000120607026700020C9E790F8351002293E
:1033400003D08021416501207047052180F83510A8
:103350000068016821F00101016000207047000051
:103360002DE9F84304464FF00009CDF800906F486E
:103370004FF416510068B0FBF1F7A56D2E6894F874
:103380005C00082202FA00F1314210D02068016886
:1033900049070CD5016821F00401016094F85C0034
:1033A00002FA00F1A960606D40F00100606594F8D8
:1033B0005C104FF0010808FA01F0304208D0216893
:1033C0004969090604D5A860606D40F00200606597
:1033D00094F85C1004208840304208D021680968C5
:1033E000890704D5A860606D40F00400606594F81A
:1033F0005C1010208840304220D0216809680907FD
:103400001CD5A8602068016849030CD5006800033A
:1034100004D4216C91B1204688470FE0A16C69B1BA
:10342000204688470AE00168C90503D4016821F0F5
:1034300008010160216C09B12046884794F85C10AE
:103440002020884030424CD021680968C90648D500
:10345000A86094F8350005280BD02068016849035E
:1034600030D50068000328D4616C51B320468847EA
:1034700037E02068016821F0160101602068416989
:1034800021F080014161206C08B9A06C20B1206856
:10349000016821F00801016094F85C103F20884029
:1034A000A86084F8358084F83490216D00293BD0E1
:1034B00001B02046BDE8F0430847E16B09B1204662
:1034C00088470EE00168C90507D4016821F01001A2
:1034D000016084F8358084F83490E16B09B12046AE
:1034E0008847606D00281FD0606DC00714D005208C
:1034F00084F835002068016821F00101016000981E
:10350000401C0090B84203D820680068C007F6D17C
:1035100084F8358084F83490E16C002904D001B03F
:103520002046BDE8F0430847BDE8F8839C00002032
:103530002DE9F041044600F0FDF905465CB102209A
:1035400084F83500002684F834602068016821F092
:10355000010101600DE00120BDE8F08100F0EAF911
:10356000401B052805D920206065032084F835001C
:10357000F2E720680068C007F0D121680A68204897
:103580000240D4E901031843D4E903352B4318431F
:1035900063691843A3691843E3691843236A18430E
:1035A0001043626A042A03D1D4E90B231A4310435F
:1035B00008602068406920F00700656A29460543D5
:1035C000012704290DD1A06A0543E06A48B12046CD
:1035D000FEF794FB28B14020606584F83570012027
:1035E000BAE7206845612046FEF772FB94F85C203C
:1035F0003F2191408160666584F835700020ABE71B
:103600003F8010F02DE9F04104460025A66D94F8A6
:10361000340001280DD0012084F8340094F835706E
:103620000020012F07D084F8340002252846BDE889
:10363000F0810220FBE7022784F8357060652046A0
:10364000FEF798FB94F85C103F208840B06020683B
:10365000016841F016010160206C20B1206801680A
:1036600041F0080101602068016841F0010101603A
:10367000DCE7000070B5044600F05CF90546601C0C
:1036800002D004480078044400F054F9401BA042E2
:10369000FAD370BD9000002010B5224C10281BD02A
:1036A00020282BD0082837D0012814D160710CF0C5
:1036B0001BFE01280FD004F11401A0690CF03AF8A8
:1036C0006069002807D018494FF080500860BFF3A8
:1036D0004F8FBFF36F8F10BD042009F0D9FF6078C2
:1036E00040F001006070A07840F00100A0702079E7
:1036F0000028F0D0BDE810400AF0B4BD032009F066
:10370000C7FF207840F00100207020790028E2D027
:10371000BDE810400AF0A6BDE07840F00100E0707E
:1037200010BD00005402002004ED00E010B5044973
:103730000A68024202D00860FFF7AEFF10BD000029
:10374000143C01402DE9F84F0022DFF89C914FF026
:10375000010803274FF00F0C09F1040AA9F1040B2B
:1037600008FA02F50B682B40AB426ED10C7904F0DD
:103770000304012C01D0022C15D18668540007FAED
:1037800004FE26EA0E06D1F80CE00EFA04FE4EEA1C
:10379000060EC0F808E04468AC430D79C5F3001587
:1037A0009540254345600C79E443A40708D0C568DB
:1037B000540007FA04F6B5438E68A6402E43C6604F
:1037C0000C7904F00304022C11D1D40800EB840618
:1037D000356A5407E40E0CFA04FE25EA0E05D1F80A
:1037E00010E00EFA04FE4EEA050EC6F820E0056869
:1037F000540007FA04F6B5430E7906F00306A64016
:103800002E4306604C6814F4403F67D0374C25685F
:1038100045F480452560246804F480440094344CC9
:1038200022F003052E19D6F8085894074FEA147EA3
:103830000CFA0EF4A5432F4CA04201D1002424E041
:103840002D4CA04202D101241FE047E02B4CA042A6
:1038500001D1022419E02A4CA04201D1032414E032
:10386000284CA04201D104240FE0274CA04201D1F2
:1038700005240AE0254CA04201D1062405E0244C91
:10388000A04201D1072400E0082404FA0EF42C43DE
:10389000C6F80848D9F800409C434D68ED0200D5B1
:1038A0001C43C9F80040DAF800409C434D68AD0263
:1038B00000D51C43CAF80040DBF800409C434D682B
:1038C000AD0300D51C43CBF80040074D083D2C68E4
:1038D0009C434E68F60300D51C432C60521C102AF2
:1038E000FFF43EAFBDE8F88F083C01404438024089
:1038F0000030014000000240000402400008024085
:10390000000C024000100240001402400018024067
:10391000001C0240426921EA02030A4043EA0241D4
:1039200081617047002A01D081617047090481617B
:103930007047000001488068704700009000002038
:1039400070B50446002C04D094F83D00002510B159
:1039500006E0012070BD84F83C50204600F0ACFA2F
:10396000242084F83D002068016821F001010160F5
:103970002068016841F4004101602068016821F479
:103980000041016001F064F94F4B6168994203D82E
:103990004E49884203D304E04D49884201D20120B8
:1039A00070BD4C49B0FBF1F12268566826F03F0625
:1039B0000E43566062689A4201D8491C07E04FF4F2
:1039C000967251434FF47A72B1FBF2F1491C2268AE
:1039D000166A26F03F06314311626168994210D899
:1039E0004900401EB0FBF1F2521CC2F30B02042A44
:1039F00001D2042022E0B0FBF1F0401CC0F30B0028
:103A00001CE0A268F2B301EBC10303EB0116431EF5
:103A1000B3FBF6F35B1C43F480431B0549D092B320
:103A200001EBC10202EB0111401EB0FBF1F0401CA2
:103A3000C0F30B0040F4804040F400402168CA69A4
:103A40004CF6FF739A431043C861D4E90710014351
:103A50002068026822F0C00211430160D4E903012A
:103A600001432068826848F2FF339A431143816022
:103A7000D4E9051001432068C26822F0FF02114317
:103A8000C16001E00EE016E02068016841F001012C
:103A900001602564202084F83D00256384F83E50B1
:103AA000002070BD01EB4106431EB3FBF6F35B1C27
:103AB000B3E70120C2E701EB4101401EB0FBF1F08A
:103AC000401CC0F30B00B7E7A086010080841E00F5
:103AD00000093D0040420F002DE9FF4F83B004462E
:103AE000DDE911988A469346109FFFF723FF0546AC
:103AF00094F83D00202803D0022007B0BDE8F08FE5
:103B00001923012298492046009502F0B5FC08B11E
:103B10000220F2E794F83C00012807D0012084F845
:103B20003C0020680168C90702D005E00220E4E7F4
:103B3000016841F0010101602068016821F4006121
:103B40000160222084F83D00402084F83E000026D9
:103B500026646762A4F82A90608D20858348E0621D
:103B6000CDE900855A4651462046069B02F056FB99
:103B700008B10120C1E7208D48B1012810D00228EA
:103B80001CD02068416980690290794FE1E020688B
:103B9000416981690291016841F400710160F4E7B3
:103BA0002068016821F480610160206841698169B1
:103BB0000291016841F400710160E6E72068016844
:103BC00021F4806101602068016841F400610160B6
:103BD0002068416980690290D7E703287ED80128D0
:103BE0000BD002281FD043460022394620460095BC
:103BF00002F042FCF0B301207FE72A46414620460E
:103C000002F0F4FC08B1012077E720680069616ADE
:103C10000870606A401C6062208D401E2085608DA7
:103C2000401E608595E043460022394620460095B7
:103C300002F022FC08B101205FE72068016841F42E
:103C40000071016020680069616A0870606A401C48
:103C50006062218D491E2185618D491E6185216823
:103C600009690170606A401C6062208D401E2085D9
:103C7000608D00E002E0401E60856AE02068016817
:103C800021F48061016020680069616A0870606ADF
:103C9000401C6062208D401E2085608D401E608526
:103CA0004346002239462046009502F0E5FB08B164
:103CB000012022E72068016841F40071016020685A
:103CC0000069616A0870606A401C6062218D491E4B
:103CD0002185618D491E6185216800E00BE009693D
:103CE0000170606A401C6062208D401E2085608DDE
:103CF000401E60852DE02A464146204602F076FCB3
:103D000008B10120F9E620680069616A0870606AFC
:103D1000401C6062208D401E81B22185608D401E56
:103D2000608520684269D243520712D4032903D127
:103D3000016821F48061016020680069616A08708F
:103D4000606A401C6062208D401E2085608D401E90
:103D50006085208D00287FF440AF20203C346070C7
:103D6000A67026700020C8E6020010000000FFFFC9
:103D7000040001002DE9FF4F83B00446DDE91198EE
:103D80008A469346109DFFF7D5FD064694F83D0000
:103D9000202803D0022007B0BDE8F08F19230122AC
:103DA00043492046009602F067FB08B10220F2E783
:103DB00094F83C00012807D0012084F83C002068DA
:103DC0000168C90702D005E00220E4E7016841F07C
:103DD000010101602068016821F400610160212077
:103DE00084F83D00402084F83E0000272764656287
:103DF000A4F82A90608D20852E48E062CDE90086E7
:103E00005A4651462046069B02F0A8FA80B301208C
:103E1000C1E732464146204602F023FC48B1206CFF
:103E2000042804D12068016841F400710160012078
:103E3000B1E7606A216800780861656A6D1C656297
:103E4000208D401E80B22085618D491E61852368CA
:103E50005969C94349070BD450B128781861606A81
:103E6000401C6062208D401E2085608D401E608554
:103E7000208D0028CDD132464146204602F0D0FAAE
:103E800048B1206C042804D12068016841F4007115
:103E9000016001207FE71F3454F81F0C016841F4D2
:103EA000007101602020A077E7776777002072E734
:103EB000020010000000FFFFF0B587B00446142197
:103EC00002A8FCF788FB1D492068884233D11C48B2
:103ED000016841F004010160016801F004010191F1
:103EE000016841F001010160006800F001000190EB
:103EF0004FF40070029012270397012404940326C4
:103F000005960425069502A90E48FFF71BFC200222
:103F10000290039704940596069502A90A48FFF7B4
:103F200011FC07481030016841F40001016000688D
:103F300000F40000019007B0F0BD0000005C0040FC
:103F40003038024000080240000002400248816808
:103F500002781144816070479000002010B50B4832
:103F6000016841F400710160016841F48061016001
:103F7000016841F480710160032000F09FF80F2078
:103F800000F006F800F050F8002010BD003C0240A0
:103F900030B587B0054600241F48016841F0010193
:103FA0000160006800F00100009001A902A800F083
:103FB0002BFE0598B0B100F04BFE40001749B0FB56
:103FC000F1F1491E16484FF08042026040F2E7329C
:103FD000C260416004618460846101F0C9FA0446F2
:103FE0001CB115E000F034FEE8E70D4801F02AFBB3
:103FF00004466CB91C2000F033F8102D07D20022C3
:1040000029461C2000F03AF80648056000E001242B
:1040100007B0204630BD00004038024040420F004B
:10402000641B00209400002082B00C48016841F419
:1040300080410160006800F4804001900748001F43
:10404000016841F080510160006800F080500190EB
:1040500000220F21901E02B000F010B84438024038
:10406000002809DB00F01F02012191404009800077
:1040700000F1E020C0F8001170470000F0B40D46D8
:104080000D4B1B68C3F30223C3F10704042C00D9B2
:104090000424191D072901D2002300E0DB1E01269C
:1040A00006FA04F1491E294099409E40761E1640AA
:1040B0003143F0BC08F0E8BA0CED00E000F0070175
:1040C000054A10684FF6FF03184040EA01200349F3
:1040D00008431060704700000CED00E00000FA0596
:1040E0007047006841620020704770B50368586AE5
:1040F000002907D09C6A00EB144400204FF482751D
:10410000491E0AE040EA024098620DE005EB800695
:104110009E5904EB1644401CC0B28842F6D305EB0E
:10412000810144EA02405850002070BDD0F8E004FC
:1041300007F05DB901EBC10200EB8202D0F8E004A8
:10414000126A07F081B801EBC10200EB8202D0F8DD
:10415000E004D2F8602207F0E5B8D0F8E00407F0F8
:1041600048B90A0601F00F0101EBC10100EB810122
:1041700001D5143101E001F51571006808F0A2B80D
:1041800070B504460B0601F00F0000EBC00104EB14
:1041900081014FF001024FF0000502D514314A7041
:1041A00002E001F515714D70087094F8940401282F
:1041B00008D084F89424206807F098FD84F894547B
:1041C000002070BD022070BD70B5044601F00F00E4
:1041D0002279904201D9012070BD0B0601F00F0138
:1041E00001EBC10104EB81014FF001024FF000052A
:1041F00002D514314A7002E001F515714D708D70D1
:10420000087094F89404012808D084F89424206855
:1042100007F0D6FE84F89454002070BD022070BDD3
:1042200001F00F0101EBC10100EB8100D0F8680241
:1042300070472DE9F04104460F0601F00F0000EB36
:10424000C00104EB81014FF001064FF0000502D5DB
:1042500014314E7002E001F515714D700870C2F313
:104260000A028A600B714A7802B14883022B00D19E
:104270004D7194F89404012809D084F8946420685E
:1042800007F07EFC284684F89454BDE8F0810220B3
:10429000FBE710B501F00F0404EBC40100EB810152
:1042A00001F51571CA600B6100234B614B700C70F6
:1042B0008379012B00D1CA618279006807F0D8FEAA
:1042C000002010BD70B504460D46217905F00F00A1
:1042D000884201D9012070BD29064FF000064FF039
:1042E000010206D500EBC00104EB810114314A70D4
:1042F00006E005EBC50104EB810101F515714E7077
:104300008A70087094F89404012807D084F89424E3
:10431000206807F081FE280702D007E0022070BD68
:10432000A17904F29C42206807F020FE84F894648E
:10433000002070BD10B501F00F0404EBC40100EBC8
:1043400081011431CA600B6100234B6101234B7062
:104350000C708379012B00D1CA618279006807F063
:1043600087FE002010BD2DE9F84F04462568284639
:1043700008F052F800287ED1206808F079F800286B
:1043800079D0D5F80808C0F30D20C4F8D40420680B
:1043900008F06EF8800704D52068416901F0020139
:1043A0004161206808F064F8C10604F29C40009066
:1043B00035D52068816921F0100181612F6A07F0ED
:1043C0000F0000EBC00004EB800606F51576C7F37E
:1043D0004340022802D0062812D01BE047F6F070B6
:1043E000074217D0C7F30A1217462846F16808F0AB
:1043F00043F8F0683844F06070693844706109E04F
:1044000008222846009908F037F87069C7F30A11A6
:10441000084470612068816941F010018161206861
:1044200008F026F800034FF0080B4FF000094FF09A
:1044300001085ED50026206807F0F9FF824655E0A6
:104440005FEACA704FD0F1B2206808F009F8074659
:10445000F80707D005EB4610C0F8088B3146204618
:1044600003F0F2F8380709D505EB4610C0F808BB91
:104470003146204600E0F8E103F0C2F8F80604D522
:1044800005EB46101021C0F8081BB8071CD5686959
:10449000000605D5D5F8040840F48061C5F8041875
:1044A00006EBC60004EB800000F51570C178012909
:1044B00005D180F80390F1B2204600F0DCF905EB5D
:1044C00046110220C1F8080BB80604D505EB4610CA
:1044D0002021C0F8081BB80405D505EB46104FF4A1
:1044E0000051C0F8081B761C4FEA5A0ABAF1000FB7
:1044F000A6D1206807F0BCFF40036CD5206807F008
:104500008FFF8246002663E05FEACA705DD0F1B299
:10451000206807F093FF0746F80723D006F00F0145
:1045200008FA01F0D5F834188143C5F8341805EBC2
:104530004610C0F80889A07901280FD106EBC60003
:1045400004EB8000D0E907211144016236B9606AAA
:1045500020B920680121009A07F008FDF1B2204639
:10456000FFF7E8FD380703D505EB4610C0F808B99A
:10457000F80604D505EB46101021C0F80819780696
:1045800004D505EB46104021C0F80819B80716D528
:104590003146284607F00EFF06EBC60004EB80000C
:1045A0001430C178012905D180F80390F1B220467A
:1045B00000F05DF905EB46110220C1F80809380644
:1045C00003D53146204603F0B1F8761C4FEA5A0A6B
:1045D000BAF1000F98D1206807F04AFF002811DADD
:1045E000D5F8040820F00101C5F8041894F8CC04AB
:1045F000012829D0204600F006FA2068416901F020
:1046000000414161206807F033FF00050BD5D5F864
:104610000808C00702D0204600F038FA2068416937
:1046200001F400614161206807F022FFC00461D5F8
:10463000D5F8040820F00101C5F8041810212068FD
:1046400007F0B8FE002120E084F8CC940021204639
:10465000FFF746FDD1E705EB411000F510604FF67E
:104660007F328260036823F400130360C0F80822DD
:10467000D0F8002222F40012C0F80022D0F8002264
:1046800042F00062C0F80022491C20798842E2D83A
:10469000D5F81C0840F00111C5F81C18E07B60B18A
:1046A000D5F8840840F00B01C5F88418D5F8440803
:1046B00040F00B01C5F844180CE0D5F8140842F29C
:1046C0002B010843C5F81408D5F8100840F00B0179
:1046D000C5F81018D5F8000820F4FE61C5F80018D8
:1046E000A1792068009A07F041FC2068416901F433
:1046F00080514161206807F0BBFE800415D5206819
:1047000007F080FA206807F077FEE07100F09AFA6F
:104710000146E279206807F015FF204600F05CF9B9
:104720002068416901F400514161206807F0A0FE52
:10473000000707D5204600F06AF92068416901F0BA
:1047400008014161206807F093FE000615D5A869AD
:1047500020F08001A96101260CE006EBC60004EB05
:10476000800090F85702012803D1F1B22046FFF7EC
:10477000F8FC761C2079B042EFD8206807F078FE6C
:10478000C0021FD5012615E005EB4610D0F8001930
:1047900006EBC60004EB8000027E012A09D1002945
:1047A00007DA80F81780F0B240F080012046FFF76A
:1047B000D8FC761C2079B042E6D82068416901F423
:1047C00080114161206807F053FE800230D501203E
:1047D00026E005EB4011D1F8001B00EBC00204EB12
:1047E000820292F85832012B19D1002917DA94F875
:1047F000D43401F4803103F0010399420FD182F8DF
:104800005782A96941F08002AA616969090606D444
:10481000D5F8040840F40070C5F8040803E0401C13
:1048200021798142D5D82068416901F400114161A4
:10483000206807F01DFE400007D52046FFF776FCF4
:104840002068416901F080414161206807F010FE55
:1048500040070AD520684568680702D52046FFF75B
:104860007CFC2068416829434160BDE8F88FD0F89E
:10487000E00406F012BED0F8E00406F023BEF8B55E
:104880000446002C05D0266894F89504002510B144
:1048900006E00120F8BD84F89454204600F05AF850
:1048A000032084F89504B6F1A04F00D1A5712068CB
:1048B00007F056FB207C8DF8000094E80F0007F00D
:1048C000AFF9022618B184F895640120F8BD0021E3
:1048D000206807F0F0FD18B184F895640120F8BD58
:1048E000002101270CE001EBC10004EB80004775BB
:1048F0000175C1850576C56105624562491CC9B26D
:1049000020798842EFD800210DE001EBC10004EBD3
:10491000800000F515704570017005718560C560F7
:104920000561491CC9B220798842EED8207C8DF8F7
:10493000000094E80F0007F059FA18B184F8956464
:104940000120F8BD657484F89574206807F040FA7A
:104950000020F8BD10B586B00446142101A8FBF76D
:104960003AFE2068B0F1A04F2FD10021184802680C
:1049700042F001020260006800F0010000904FF474
:10498000C0500190022002900391032004900A205D
:10499000059001A90F48FEF7D5FE0D48001D0168DE
:1049A00041F0800101600A481430016841F48041FF
:1049B0000160006800F4804000900022052143203F
:1049C000FFF75CFB4320FFF74BFB06B010BD000078
:1049D000303802400000024070B504460125E079FD
:1049E00000280ED0022801D0FDF7FCFA2946D4F8A1
:1049F000E00406F0D8FDD4F8E004BDE8704006F00D
:104A00008BBD0025F2E7D0F8E00406F0B5BDD0F884
:104A1000E00406F0BBBD10B5044694F894040128E8
:104A20000AD0012084F894046174206807F073FDB3
:104A3000002084F8940410BD022010BDD0F8E024BA
:104A400000F29C41104606F0BABD10B5044620683D
:104A500094F89414012909D0012184F89414C168B0
:104A6000490609D5617B012902D005E0022010BD6D
:104A7000816B41F480318163206807F075FC206808
:104A800007F098F9002084F8940410BD10B504468E
:104A9000D4F8E00406F0D5FD2068D0F8001E41F0FF
:104AA0000101C0F8001EE07A002804D00248016825
:104AB00041F00601016010BD10ED00E02DE9F04766
:104AC00004460D46002C13D0DFF82891D9F80000D9
:104AD000EFB200F00700A8420CD289F80070D9F8B4
:104AE000000000F00700A84204D00120BDE8F087D4
:104AF0000120FBE72068404E810712D5400703D50F
:104B0000306840F4E05030602078000703D530680A
:104B100040F4604030603068A16820F0F000084345
:104B200030602078C00731D03349606808390128E7
:104B300008D002280BD0032809D0096889070BD4B4
:104B40000120D3E70968890306D40120CEE709686C
:104B5000890101D40120C9E7316821F00301014333
:104B60003160FEF7E7FE804641F2883A07E0FEF743
:104B7000E1FEA0EB0800504501D90320B6E73068FC
:104B8000616800F00C00B0EB810FF0D1D9F80000A3
:104B900000F00700A84209D989F80070D9F8000090
:104BA00000F00700A84201D001209FE720784007CD
:104BB00005D53068E16820F4E05008433060207883
:104BC000000706D53068216920F4604040EAC10042
:104BD000306000F05DF83168084AC1F30311515CA0
:104BE000C8400749086007480068FFF7D1F900206E
:104BF0007CE70000003C0240083802407C0B0108C2
:104C00009C000020940000200F2202600B4A1368D1
:104C100003F003034360136803F0F0038360136839
:104C200003F4E053C360126802F46042D2080261E8
:104C30000348006800F00700086070470838024029
:104C4000003C024001480068704700009C000020C2
:104C500000B5FFF7F7FF04490968044AC1F3822150
:104C6000515CC84000BD0000083802408C0B0108B0
:104C700000B5FFF7E7FF04490968044AC1F3423170
:104C8000515CC84000BD0000083802408C0B010890
:104C900010B51748006810F00C01164816D0164BD6
:104CA000042912D0082911D1114C241F216801F0C8
:104CB0003F02216849020AD52068C0F38810A0FB92
:104CC00003010023FBF750FB09E0184610BD2168E3
:104CD0000023C1F38811A1FB0001FBF745FB21680C
:104CE000C1F30141491C4900B0FBF1F010BD0000C7
:104CF000083802400024F400001BB7002DE9F84FEB
:104D00000446002C13D02078DFF8A083C007A8F158
:104D1000040556D008F104000168C1F3810101299E
:104D20000CD00068C0F38100022803D00DE0012000
:104D3000BDE8F88FD8F80000400206D52868800347
:104D40003FD5606870BB0120F2E76068B0F5803F36
:104D500010D0B0F5A02F12D0286820F48030286041
:104D6000286820F4802028606068E0B1FEF7E2FD4A
:104D7000064614E0286840F480302860F4E728688C
:104D800040F480202860286840F480302860EBE7F9
:104D9000FEF7D0FD801B642801D90320C8E72868EE
:104DA0008003F5D50DE0FEF7C5FD064606E0FEF7EB
:104DB000C1FD801B642801D90320B9E7286880035E
:104DC000F5D42078BA4F80074FF0000948D5B7488E
:104DD000001D016811F00C0F08D00068C0F38100BD
:104DE000022813D1D8F8000040020FD428688007A9
:104DF00004D5E068012801D0012099E728682169DD
:104E000020F0F80040EAC100286029E0E068B8B16D
:104E100001203860FEF78EFD064606E0FEF78AFDAB
:104E2000801B022801D9032082E728688007F5D576
:104E30002868216920F0F80040EAC10028600FE0EE
:104E4000C7F80090FEF776FD064606E0FEF772FD15
:104E5000801B022801D903206AE728688007F5D45F
:104E60002078000729D5DFF844A2924861690AF149
:104E7000700A89B101210160FEF75CFD064606E07B
:104E8000FEF758FD801B022801D9032050E7DAF80D
:104E900000008007F4D510E0C0F80090FEF74AFD4E
:104EA000064606E0FEF746FD801B022801D90320D6
:104EB0003EE7DAF800008007F4D42078400778D580
:104EC0004FF0000A79483C300068C0000BD47748A6
:104ED0003C30016841F080510160006800F0805072
:104EE00000904FF0010ADFF8D0B1DBF80000C005F8
:104EF00014D4DBF8000040F48070CBF80000FEF71B
:104F000019FD064606E0FEF715FD801B022801D9B3
:104F100003200DE7DBF80000C005F4D5634EA06860
:104F20006C3601280FD0052812D0306820F001001F
:104F30003060306820F004003060A068F8B1FEF7FF
:104F4000F9FC834617E0306840F001003060F4E778
:104F5000306840F004003060306840F0010030609C
:104F6000EBE7FEF7E7FCA0EB0B0141F28830814252
:104F700001D90320DCE630688007F2D510E0FEF7A7
:104F8000D9FC834609E0FEF7D5FCA0EB0B0141F20A
:104F90008830814201D90320CAE630688007F2D404
:104FA000BAF1010F05D141483C30016821F0805130
:104FB0000160A069C0B33D49091D09684FF0FF3683
:104FC000C1F38101022946D0022805D0C7F86090BC
:104FD000FEF7B0FC04463AE0C7F86090FEF7AAFC82
:104FE000814607E0FEF7A6FCA0EB0900022801D9E4
:104FF00003209DE628688001F4D4D4E90701084322
:10500000616AA26A890106EB520241EA0241084341
:1050100094F82C1040EA0160C8F8000001203866BE
:10502000FEF788FC044607E03DE0FEF783FC001B2A
:10503000022801D903207BE628688001F5D532E0FB
:10504000FEF778FC001B022801D9032070E62868CF
:105050008001F5D427E0012823D0D8F80000E269C8
:1050600000F4800191421AD1226A00F03F0191427E
:1050700015D147F6C071626A0140B1EB821F0ED1B3
:10508000A26A00F4403106EB5202B1EB024F06D1A6
:1050900094F82C1000F07060B0EB016F03D0012089
:1050A00046E6012044E6002042E6000004380240C3
:1050B00000004742800E47420070004070B5044631
:1050C000002C09D0606A002540B125616561A562A8
:1050D00094F8510040B10CE0012070BD6068B0F55B
:1050E000827FF4D0E561F2E784F85050204600F06A
:1050F00045F8022084F851002068016821F0400141
:105100000160A088218900F4827001F40441084301
:10511000A18901F400610843217C01F002010843E8
:10512000217D01F001010843218B01F40071084346
:10513000217F01F03801084394F8201001F080012C
:105140000843218D01F40051084321680860A069DB
:10515000042101EA104094F8241001F010010843E2
:10516000216848602068C16921F40061C1616565FA
:10517000012084F85100002070BD00002DE9F043AB
:1051800087B00546142102A8FBF725FA394928689B
:1051900088426CD100263848016841F48051016092
:1051A000006800F48050019033481438016841F0E1
:1051B00002010160016801F002010191016841F002
:1051C00001010160006800F00100019018200290C8
:1051D0004FF00208CDF80C804FF00109CDF8109087
:1051E000032405940527069702A92448FEF7AAFA86
:1051F00080200290CDF80C80CDF810900594069791
:1052000002A91F48FEF79EFA1F4C1E4820604FF06F
:10521000C068C4F80480A660E6600715276166616F
:10522000A661E6614FF44030206266622046FEF7D8
:105230007FF908B1FCF7D6FEEC64A5631148124C67
:10524000183060342060C4F804804020A060E6601C
:1052500027616661A661E661C0022062666220463F
:10526000FEF766F908B1FCF7BDFEAC64A56307B0B4
:10527000BDE8F083003001404438024000040240A1
:105280000000024040640240340B00202DE9FF4F33
:1052900081B004460E9E93461F460125FEF74AFB49
:1052A000804694F85100616801280AD0B1F5827FE8
:1052B00003D1A16809B9042803D0022005B0BDE8D4
:1052C000F08F0298A0B3BBF1000F32D0380030D07D
:1052D00094F8500001282ED04FF0010A84F850A015
:1052E00094F85100042802D0052084F851004FF0B2
:1052F0000009C4F85490C4F838B0E787A78702982B
:105300002063E786A786C4F84090C4F844902068DC
:105310000168490603D4016841F040010160E0687A
:10532000B0F5006F09D06068F0B3012F4DD082E076
:10533000FFE70120C2E70220C0E7606808B1012F43
:105340003CD1206B21680088C860206B801C2063E2
:10535000E08E401EE08631E02068816889070DD527
:10536000E18E59B1012D09D1216B0988C160206BF3
:10537000801C2063E08E401EE08600252068816846
:10538000C9070BD0E18F49B1C068A16B0880A06B41
:10539000801CA063E08F401EE0870125FEF7CAFA5B
:1053A000A0EB0800B04200E00FE007D3701C05D06E
:1053B00084F851A084F8509003207FE7E08E002805
:1053C000CAD1E08F0028C7D13BE0206B216800786C
:1053D0000873206B401C2063E08E401EE0862AE0AC
:1053E0002068816889070DD5E18E59B1012D09D159
:1053F000216B09780173206B401C2063E08E401EF6
:10540000E086002520688168C9070BD0E18F49B18B
:10541000C068A16B0870A06B401CA063E08F401EA9
:10542000E0870125FEF786FAA0EB0800B04201D321
:10543000701C12D18EB1E08E0028D1D1E08F0028EF
:10544000CED142463146204604F0BEFA58B1202063
:10545000606584F85090012030E784F851A084F80A
:10546000509003202AE7A06818B92068C1688068B6
:10547000009084F851A084F85090606D08B101202C
:105480001CE700201AE77047704710B590F83C20E1
:10549000012A22D0012280F83C20CA6800238C68AF
:1054A00022F4407222434C6822F4806222430C684A
:1054B00022F4006222430C6922F4805222434C6998
:1054C00022F400522243C96922F480420A4301684F
:1054D0004A6480F83C30002010BD022010BD00005E
:1054E00070B590F83C20012A31D0012680F83C604C
:1054F000022280F83D2002685468936824F0700509
:105500000C682C435460134C0268A24214D0B2F1D0
:10551000804F11D0104CA2420ED0104CA2420BD0A2
:105520000F4CA24208D00F4CA24205D00E4CA24212
:1055300002D00E4CA24204D123F0800349681943E3
:1055400091603C30467000210170002070BD022047
:1055500070BD000000000140000400400008004051
:10556000000C0040000401400040014000180040D1
:1055700010B50446002C03D094F83D0010B107E0AC
:10558000012010BD002084F83C00204600F016F8F1
:10559000022084F83D00211D206804F0A7FD0120B1
:1055A0003D3460726070A070E07020716071A07115
:1055B000E07120722070002010BD000008B5006866
:1055C0001C4A1D49904211D1086840F00100086052
:1055D000086800F001000090002207211920FEF762
:1055E0004DFDBDE808401920FEF73ABD134A904230
:1055F0000AD11148001F016841F0040101600068F0
:1056000000F00400009008BD0D4A9042FBD10868EC
:1056100040F400300860086800F400300090002278
:1056200007211920FEF72AFDBDE808401920FEF7E2
:1056300017BD00000000014044380240000800404F
:105640000044014090F83D10012901D0012070472D
:10565000022180F83D100168CA6842F00102CA6068
:1056600000681449884214D0B0F1804F11D012491B
:1056700088420ED0114988420BD01149884208D087
:105680001049884205D01049884202D00F4988420B
:1056900009D1816801F00701062908D0016841F0AD
:1056A0000101016003E0016841F001010160002097
:1056B0007047000000000140000400400008004066
:1056C000000C004000040140004001400018004070
:1056D00070B50446002594F83C00012817D0012637
:1056E00084F83C60022084F83D002068826822F043
:1056F000770222F47F4282600868502838D00DDC9F
:10570000202853D005DC90B3102811D14EE00220A0
:1057100070BD30284AD040280AD13DE0602831D001
:1057200070280CD0B0F5805F03D0B0F5005F12D0C8
:1057300001253C34667000202070284670BDCB687F
:10574000D1E90121206804F04CFD2068816841F016
:1057500077018160EDE7CB68D1E90121206804F091
:1057600040FD2068816841F480418160E1E71DE0EF
:10577000CA684968206804F017FE5021206804F0C8
:105780003AFDD6E7CA684968206804F01EFE602129
:10579000206804F030FDCCE7CA684968206804F04E
:1057A00003FE4021206804F026FDC2E7226801467E
:1057B000104604F020FDBCE770472DE9F041044697
:1057C0002068C56806694FF00007B10714D5A9071E
:1057D00012D5F91E016101202077206880698007B9
:1057E00003D02046FFF7E8FF05E0204600F0EEF882
:1057F000204600F07EF92777700717D5680715D582
:1058000021686FF004000861022020772068806919
:1058100010F4407F03D02046FFF7CEFF05E020467E
:1058200000F0D4F8204600F064F92777300716D549
:10583000280714D521686FF008000861042020773C
:105840002068C069800703D02046FFF7B5FF05E058
:10585000204600F0BBF8204600F04BF92777F00611
:1058600017D5E80615D521686FF0100008610820EB
:1058700020772068C06910F4407F03D02046FFF7EE
:105880009BFF05E0204600F0A1F8204600F031F92A
:105890002777F00708D0E80706D021686FF00100ED
:1058A0000861204600F094F9300608D5280606D590
:1058B00021686FF0800008612046FFF7E4FD700664
:1058C00008D5680606D521686FF0400008612046BB
:1058D00000F085F9B0060AD5A80608D521686FF052
:1058E000200008612046BDE8F041FFF7CDBDBDE8CE
:1058F000F08100002DE9F04186B00446142101A892
:10590000FAF769FE20682A4B02240026294901255E
:1059100003226703984220D1086840F01000086015
:10592000086800F0100000904FF428500190029495
:10593000039504920595DFF8808001A94046FDF7A4
:1059400001FF0197029403960496059501A940462C
:10595000FDF7F8FE06B0BDE8F081184B984211D172
:10596000086840F008000860086800F0080000902F
:105970000197029403950492059401A91048FDF73C
:10598000E1FEE7E70F4B9842E4D1086840F02000C1
:105990000860086800F02000009040200190029408
:1059A00003950492059201A90748FDF7CBFED1E7C4
:1059B0000000014030380240001002400008004062
:1059C000000C02400044014000140240704770B5D2
:1059D00004460D46002694F83C0001280FD0012013
:1059E00084F83C006AB1042A1FD0082A32D00C2A5D
:1059F00044D00126002084F83C00304670BD0220CF
:105A000070BD2946206804F0FFFB2068816941F0E1
:105A1000080181612068816921F0040181612068A9
:105A200081692A6911438161E4E72946206804F00D
:105A30001FFC2068816941F40061816120688169EF
:105A400021F480618161206881692A6941EA02212B
:105A50008161CFE72946206804F044FC2068C169D1
:105A600041F00801C1612068C16921F00401C161F0
:105A70002068C1692A691143C161BBE729462068D2
:105A800004F068FC2068C16941F40061C1612068CC
:105A9000C16921F48061C1612068C1692A6941EA54
:105AA0000221C161A6E710B50446002C03D094F88A
:105AB0003D0010B107E0012010BD002084F83C003B
:105AC000204600F015F8022084F83D00211D2068D2
:105AD00004F00CFB01203D3460726070A070E07037
